:020000040800F2
:100000006806002089010008C50600081D060008D2
:10001000C106000843020008C108000800000000F3
:100020000000000000000000000000007107000850
:1000300021030008000000004D0700085D080008CB
:10004000A3010008A3010008A3010008A301000800
:10005000A3010008A3010008A3010008A3010008F0
:10006000A3010008A3010008A5030008A3010008DC
:10007000A3010008A3010008A3010008A3010008D0
:10008000A3010008A3010008A3010008A3010008C0
:10009000A3010008A3010008A3010008C50300088C
:1000A000A3010008A3010008A3010008A3010008A0
:1000B000A3010008A3010008A3010008A301000890
:1000C000A3010008A3010008A3010008A301000880
:1000D000A3010008A3010008A3010008A301000870
:1000E00069030008A3010008A301000800F002F85A
:1000F00000F03AF80AA090E8000C82448344AAF188
:100100000107DA4501D100F02FF8AFF2090EBAE885
:100110000F0013F0010F18BFFB1A43F0010318473B
:100120004009000060090000103A24BF78C878C177
:10013000FAD8520724BF30C830C144BF04680C60ED
:10014000704700000023002400250026103A28BF35
:1001500078C1FBD8520728BF30C148BF0B60704739
:100160001FB51FBD10B510BD00F031F81146FFF7E7
:10017000F7FF00F0A7FB00F04FF803B4FFF7F2FF22
:1001800003BC00F057F800000948804709480047C1
:10019000FEE7FEE7FEE7FEE7FEE7FEE7FEE7FEE737
:1001A000FEE7FEE704480549054A064B7047000094
:1001B00061080008ED0000086800002068060020C3
:1001C000680200206802002070477047704775463B
:1001D00000F02CF8AE4605006946534620F00700B3
:1001E000854618B020B5FFF7DDFFBDE820404FF091
:1001F00000064FF000074FF000084FF0000B21F011
:100200000701AC46ACE8C009ACE8C009ACE8C009DD
:10021000ACE8C0098D46704710B50446AFF30080C6
:100220002046BDE81040FFF7A8BF00000048704717
:100230000400002001491820ABBEFEE726000200A2
:10024000704700BFFEE700000148008870470000CB
:10025000000000201FB50121082000F079FA0121DB
:10026000084600F075FA48208DF80F004FF4414021
:10027000ADF80C0003208DF80E0003A9274800F00C
:1002800035F90421012000F011F90821012000F0C6
:100290000DF90E21012000F009F90F21012000F0D5
:1002A00005F94CF21010019001208DF80A00002091
:1002B0008DF808000C208DF8090001A800F0ACF8BA
:1002C0004FF4A06000F038FA28208DF800000120DB
:1002D0008DF803008DF801008DF80200684600F0EB
:1002E000F3F90A208DF8000001208DF803008DF845
:1002F00001008DF80200684600F0E6F917208DF83D
:10030000000001208DF803008DF8010002208DF817
:100310000200684600F0D8F91FBD0000000C014043
:10032000704700B5034603E04FF47A7000F005F81B
:10033000181EA3F10103F7D100BD00EBC001C900F5
:100340004FF0E0225161002191610521116100BF50
:100350004FF0E021096901F480310029F8D004212F
:100360004FF0E0221161704710B54FF4004000F0EB
:100370003FF8012806D10F20094908804FF40040BA
:1003800000F030F84FF4804000F032F8012806D138
:100390000E20034908804FF4804000F023F810BD80
:1003A0000000002010B5102000F022F8012805D12F
:1003B000042003490880102000F014F810BD00004C
:1003C0000000002010B54FF4807000F011F80128F3
:1003D00005D1082002490880400100F003F810BD53
:1003E000000000200149086070470000140401402B
:1003F000014600200022074B1B6803EA0102054B5F
:1004000014331B680B4013B10AB1012000E0002037
:100410007047000000040140002123498279002A2E
:100420003AD00A46126803689A430B461A600A1DBE
:10043000126803689A430B1D1A60027911440A6816
:1004400003681A430A60184A0832126803689A431C
:10045000154B08331A601A1D126803689A43124B31
:100460000C331A604279102A0ED11A1F12680368E1
:100470001A430D4B08331A601A1D126803681A4399
:10048000094B0C331A600DE00749427911440A68A0
:1004900003681A430A6005E0027911440A68036898
:1004A0009A430A60704700000004014030B5002202
:1004B0008B071C0F0F2303FA04F20B4B8C1053F81D
:1004C00024309343084C8D1044F8253023468C107B
:1004D00053F824308C07240F00FA04F42343024C11
:1004E0008D1044F8253030BD080001402DE9F04161
:1004F000024600250026002000230024002791F852
:1005000003C00CF00F0591F803C00CF0100CBCF107
:10051000000F03D091F802C04CEA050591F800C025
:10052000BCF1000F31D0146800202BE04FF0010C1B
:100530000CFA00F3B1F800C00CEA03069E4220D189
:1005400083004FF00F0C0CFA03F7BC4305FA03FCD1
:100550004CEA040491F803C0BCF1280F06D14FF017
:10056000010C0CFA00FCC2F814C00AE091F803C0B8
:10057000BCF1480F05D14FF0010C0CFA00FCC2F899
:1005800010C0401C0828D1D31460B1F800C0BCF1E1
:10059000FF0F34DD546800202EE000F1080C4FF00E
:1005A000010808FA0CF3B1F800C00CEA03069E42F9
:1005B00021D183004FF00F0C0CFA03F7BC4305FA6E
:1005C00003FC4CEA040491F803C0BCF1280F05D1E8
:1005D00000F1080C08FA0CF8C2F8148091F803C076
:1005E000BCF1480F07D100F1080C4FF0010808FAE0
:1005F0000CF8C2F81080401C0828CED35460BDE827
:10060000F08102460020D3680B400BB1012000E0CE
:1006100000207047416170470161704700BFFEE7ED
:1006200010B502210648FFF7ECFF20B9022104486B
:10063000FFF7F2FF03E002210148FFF7EBFF10BDD7
:100640000008014010B504210648FFF7DAFF20B981
:1006500004210448FFF7E0FF03E004210148FFF70D
:10066000D9FF10BD0008014010B508210648FFF76A
:10067000C8FF20B908210448FFF7CEFF03E0082196
:100680000148FFF7C7FF10BD0008014008B5012170
:10069000042000F05DF810208DF803000620ADF86E
:1006A000000003208DF8020069460448FFF71EFF92
:1006B00006210248FFF7B0FF08BD00000008014016
:1006C00000BFFEE77047000070B5002100230F2235
:1006D000C47804B3154C246804F4E064C4F5E06401
:1006E000210AC1F10403CA40447804FA03F1847872
:1006F0001440214309010E4C0678A155047804F0FA
:100700001F050124AC4005786D11AD0005F1E02511
:10071000C5F8004109E0047804F01F050124AC404D
:10072000044D0678761145F8264070BD0CED00E0CA
:1007300000E400E080E100E002490143024A116068
:10074000704700000000FA050CED00E07047000063
:1007500029B1064A92690243044B9A6104E0034AB4
:1007600092698243014B9A61704700000010024079
:10077000704710B500F002F810BD00000CB5002065
:10078000019000903348006840F48030314908609F
:1007900000BF3048006800F4003000900198401C11
:1007A0000190009818B90198B0F5A06FF1D12948CF
:1007B000006800F4003010B10120009001E000203A
:1007C00000900098012843D12348006840F01000B1
:1007D000214908600846006820F0030008600846C8
:1007E000006840F0020008601A48406819494860F3
:1007F0000846406848600846406840F480604860A9
:100800000846406820F47C1048600846406840F480
:10081000E81048600846006840F08070086000BF3B
:100820000C48006800F000700028F9D009484068C2
:1008300020F00300074948600846406840F0020085
:10084000486000BF0348406800F00C000828F9D158
:100850000CBD000000100240002002407047000064
:1008600010B51348006840F00100114908600846BF
:100870004068104908400E494860084600680E4923
:1008800008400B4908600846006820F48020086092
:100890000846406820F4FE0048604FF41F0088605E
:1008A000FFF767FF4FF000600449086010BD0000CB
:1008B000001002400000FFF8FFFFF6FE08ED00E028
:1008C00000BFFEE70EB5FFF7C5FCFFF7DFFE604A8D
:1008D00007CA8DE807000025FFF7B6FC0646B5E01D
:1008E000FFF7B2FC0446B4420BD0042D09DA00989D
:1008F000A04206D00198A04203D028466D1C4DF8B6
:1009000020400098092830D2DFE800F0050C131AC7
:10091000212F2F2F2800FFF783FE42F21070FFF7E0
:1009200000FD22E0FFF77CFE42F21070FFF7F9FCB9
:100930001BE0FFF775FE42F21070FFF7F2FC14E0C7
:10094000FFF76EFE42F21070FFF7EBFC0DE0FFF7D1
:1009500067FE42F21070FFF7E4FC06E0FFF772FE5C
:1009600042F21070FFF7DDFC00BF00BF01980928BC
:1009700030D2DFE800F0050C131A212F2F2F2800AA
:10098000FFF74EFE44F62060FFF7CBFC22E0FFF7B6
:1009900047FE44F62060FFF7C4FC1BE0FFF740FE73
:1009A00044F62060FFF7BDFC14E0FFF739FE44F683
:1009B0002060FFF7B6FC0DE0FFF732FE44F6206042
:1009C000FFF7AFFC06E0FFF73DFE44F62060FFF7BF
:1009D000A8FC00BF00BF0298042827D005DC48B15E
:1009E00001280ED002282FD112E0082825D00E2889
:1009F0002AD114E0FFF714FE49F64040FFF791FCBE
:100A000022E0FFF70DFE49F64040FFF78AFC1BE0AD
:100A1000FFF706FE49F64040FFF783FC14E0FFF7BE
:100A200023FE49F64040FFF77CFC0DE0FFF7F8FDA0
:100A300049F64040FFF775FC06E0FFF703FE49F674
:100A40004040FFF76EFC00BF00BF00BF48E700005A
:100A5000540A0008FFFFFFFFFFFFFFFFFFFFFFFF3C
:100A6000800A00080000002004000000280100089F
:100A7000840A000804000020640600004401000805
:040A80000000000072
:04000005080000ED02
:00000001FF
