:020000040800F2
:10000000E00400209D01000809040008ED0200083A
:100010000504000809020008EF09000800000000BC
:10002000000000000000000000000000B105000812
:100030000D0200080000000085040008A106000869
:10004000B7010008B7010008B7010008B7010008B0
:10005000B7010008B7010008B7010008B7010008A0
:10006000B7010008B7010008B7010008B701000890
:10007000B7010008B7010008B7010008B701000880
:10008000B7010008B7010008B7010008B701000870
:10009000B7010008B7010008B7010008B701000860
:1000A000B7010008B7010008B7010008B701000850
:1000B000B7010008B7010008B7010008B701000840
:1000C000B7010008B7010008B7010008B701000830
:1000D000B70100080D070008B7010008B7010008C4
:1000E000B7010008B7010008B7010008B701000810
:1000F000B7010008B7010008B7010008B701000800
:10010000B7010008B7010008B7010008B7010008EF
:10011000B7010008B7010008B7010008B7010008DF
:10012000B7010008B7010008B7010008B7010008CF
:10013000B7010008B7010008B7010008B7010008BF
:10014000B7010008B7010008B7010008B7010008AF
:10015000B7010008B7010008B7010008B70100089F
:10016000B7010008B7010008B7010008B70100088F
:10017000B7010008B7010008B7010008B70100087F
:10018000B7010008B7010008DFF80CD000F02AF82A
:1001900000480047590A0008E0040020064880474C
:1001A00006480047FEE7FEE7FEE7FEE7FEE7FEE75C
:1001B000FEE7FEE7FEE7FEE7A50600088901000866
:1001C000D2B201E000F8012B491EFBD27047002299
:1001D000F6E710B513460A4604461946FFF7F0FF46
:1001E000204610BD064C074D06E0E06840F00103D4
:1001F00094E8070098471034AC42F6D3FFF7C8FFE5
:10020000C80A0008E80A000800BFFEE77047F0B51A
:100210000A4600210023002400BF3DE0012505FA25
:1002200001F3156805EA03049C4234D105684F00C8
:100230000326BE40B543056015794E00B5400668FB
:10024000354305601579012D02D01579022D16D19F
:1002500085684F000326BE40B543856055794E0042
:10026000B540866835438560456801268E40B543B4
:100270004560456896798E40B6B235434560C5689D
:100280004F000326BE40B543C560D5794E00B5404A
:10029000C6683543C560491C1029BFD3F0BDF0B511
:1002A000002300244D07ED0E02FA05F3CE1000F1F5
:1002B000200555F826504E07F70E0F26BE40B543D1
:1002C000CF1000F1200646F82750CE1000F120058F
:1002D00055F8265045EA0304CE1000F1200545F8F4
:1002E0002640F0BD418370470183704700BFFEE7A1
:1002F00010B54FF480710248FFF7F4FF10BD000005
:10030000000C024010B54FF400710248FFF7EAFFFD
:1003100010BD0000000C024010B54FF4806102488F
:10032000FFF7E0FF10BD0000000C024010B54FF4D5
:1003300000610248FFF7D6FF10BD0000000C02402C
:1003400010B54FF480510248FFF7CCFF10BD0000FC
:10035000000C024010B54FF400510248FFF7C2FFF5
:1003600010BD0000000C024010B54FF4804102485F
:10037000FFF7B8FF10BD0000000C024010B54FF4AD
:1003800000410248FFF7AEFF10BD0000000C024024
:100390001CB50121082000F077F80121022000F0AF
:1003A00073F801208DF804004FF47F400090032083
:1003B0008DF8050000208DF8060001208DF807005B
:1003C00069460948FFF723FF4FF47F410648FFF7CE
:1003D0008BFF0820009069460448FFF718FF0821AA
:1003E0000248FFF781FF1CBD000C024000040240E0
:1003F00010B54FF47F410248FFF776FF10BD0000B3
:10040000000C024000BFFEE77047000070B50021FD
:1004100000230F22C4781CB3174C246804F4E06452
:10042000C4F5E064C4F30721C1F10404E3B20A4156
:1004300044789C40E1B28478144021430C07210E9B
:100440000E4C05786155047804F01F050124AC407A
:1004500005786D11AD0005F1E025C5F8004109E012
:10046000047804F01F050124AC40054D0678761190
:1004700045F8264070BD00000CED00E000E400E00F
:1004800080E100E07047000029B1064A126802438B
:10049000044B1A6004E0034A12688243014B1A605D
:1004A000704700003038024029B1064A1268024302
:1004B000044B1A6004E0034A12688243014B1A603D
:1004C0007047000044380240F0B5002100220024AB
:1004D000022500260223324F3F6807F00C0121B1AC
:1004E000042905D0082937D105E02E4F076036E0F2
:1004F0002D4F076033E02A4F3F1F3F68C7F38056F8
:10050000274F3F1F3F6807F03F036EB1264FB7FBF1
:10051000F3F7DFF88CC0ACF1040CDCF800C0CCF3CE
:10052000881C07FB0CF40CE01E4FB7FBF3F7DFF859
:1005300070C0ACF1040CDCF800C0CCF3881C07FBE5
:100540000CF4174F3F1F3F68C7F301477F1C7D0026
:10055000B4FBF5F7076002E0124F076000BF00BF71
:100560000F4F3F6807F0F0010909104F7A5C0768E8
:10057000D74047600A4F3F6807F4E051890A0B4FA4
:100580007A5C4768D7408760054F3F6807F4604151
:10059000490B064F7A5C4768D740C760F0BD000042
:1005A000083802400024F40000127A000000002005
:1005B000704700000CB5002001900090344800689E
:1005C00040F480303249086000BF3148006800F4D0
:1005D000003000900198401C0190009818B90198D3
:1005E000B0F5A04FF1D12A48006800F4003010B1F6
:1005F0000120009001E0002000900098012846D1E1
:1006000023484030006840F0805021494031086064
:100610002048006840F440401E4908601C480830EB
:1006200000681B49083108600846006840F4004033
:1006300008600846006840F4A05008601648091F8A
:100640000860081F006840F08070091F086000BF44
:100650000F48006800F000700028F9D040F20570E3
:100660000E4908600A480830006820F00300084975
:10067000083108600846006840F00200086000BFCA
:1006800003480830006800F00C000828F8D10CBDC1
:10069000003802400070004008544007003C02400F
:1006A0007047000010B51548006840F47000134909
:1006B00008601348006840F00100114908600020FC
:1006C0000F49083108600E4800680E4908400C497F
:1006D00008600D48091D0860081F006820F480208C
:1006E000091F0860002006490C310860FFF762FF0F
:1006F0004FF0006001498039086010BD88ED00E0CE
:1007000000380240FFFFF6FE1030002410B540F222
:1007100025511D4800F0ADF810B31B4800F062F9F8
:10072000C4B21A48008800F40040C8B917480088CD
:1007300000F4804060B10A2C03D0002013490880E7
:1007400020E01248008840F400401049088019E079
:100750000D2C06D10D48008840F480400B490880DC
:1007600010E00A480088C0F30D0009490C540748FE
:100770000088401C0549088008460088C72801DD1C
:100780000020088010BD0000001001401000002073
:100790001400002010B588B0044601210846FFF778
:1007A00073FE01211020FFF77FFE07220921244854
:1007B000FFF775FD07220A212148FFF770FD4FF46E
:1007C000C060069002208DF81C008DF81D000020EE
:1007D0008DF81E0001208DF81F0006A91848FFF7AC
:1007E00016FD02940020ADF80C00ADF80E00ADF837
:1007F0001000ADF814000C20ADF8120002A9114849
:1008000000F086F801210F4800F027F840210D483C
:1008100000F01AF8012240F225510A4800F053F87E
:1008200025208DF8040003208DF805008DF80600C2
:1008300001208DF8070001A8FFF7E8FD08B010BD02
:10084000000002400010014001F40072B2F5007F88
:1008500000D100BFCA430280704721B1828942F4AF
:100860000052828104E082894DF6FF731A40828132
:10087000704770B50246002400230025002040F692
:100880006A16B14200D100BFC1F3421501F01F0347
:10089000012606FA03F3012D02D19689334006E0C2
:1008A000022D02D1168A334001E0968A33400C12A1
:1008B000012606FA04F41688344013B10CB1012065
:1008C00000E0002070BDF0B503460024002600259E
:1008D000002040F66A17B94200D100BF1846C1F3A4
:1008E000421401F01F06012707FA06F5012C01D179
:1008F0000C3004E0022C01D1103000E014301AB1A9
:1009000007682F43076002E00768AF430760F0BD48
:100910002DE9FF4705460E460024A14600BFA0462C
:10092000B08900B100BF2C8A24F44054F0880443FD
:100930002C82AC8941F20C608443B0883189084331
:10094000718908430443AC81AC8A24F44074B089B3
:100950000443AC826846FFF7B7FD2048854202D0C9
:100960001F48854202D1DDF80C9001E0DDF80890C7
:10097000A88900F4004040B109EBC90000EB091060
:1009800031684900B0FBF1F707E009EBC90000EB63
:10099000091031688900B0FBF1F76420B7FBF0F073
:1009A00004012009642101FB1078A88900F40040AB
:1009B00040B1322000EBC800B0FBF1F000F00700BE
:1009C000044308E0322000EB08106421B0FBF1F092
:1009D00000F00F0004432C81BDE8FF8700100140A8
:1009E0000014014001468888C0F30800704700BF2A
:1009F000FEE702E008C8121F08C1002AFAD17047BA
:100A00007047002001E001C1121F002AFBD170478E
:100A100010B5ADF5976D40F2B44101A8FFF7D7FBD3
:100A200001200290002112E002200CE0421E01ABE6
:100A300053F82230821E01AC54F822201A4401AB34
:100A400043F82020401CB0F5967FEFDB491C642959
:100A5000EADB0DF5976D10BD4FF41650FFF79AFEC7
:100A6000FFF796FC2FE0FFF743FCFFF7D1FFFFF7FE
:100A7000BFFCFFF747FCFFF7CBFFFFF7B9FCFFF721
:100A80004BFCFFF7C5FFFFF7B3FCFFF74FFCFFF789
:100A9000BFFFFFF7ADFCFFF753FCFFF7B9FFFFF710
:100AA000A7FCFFF757FCFFF7B3FFFFF7A1FCFFF729
:100AB0005BFCFFF7ADFFFFF79BFCFFF75FFCFFF769
:100AC000A7FFFFF795FCCEE7E80A0008000000202A
:100AD00014000000F2090008FC0A000814000020BD
:100AE000CC040000020A0008000000000102030418
:0C0AF000010203040607080900000000D2
:040000050800018965
:00000001FF
