:020000040800F2
:100000002818002089010008FD0400081B040008CE
:10001000F9040008ED020008371C00080000000089
:10002000000000000000000000000000951600081D
:10003000F10200080000000017020008A9170008DC
:10004000A3010008A3010008A3010008A301000800
:10005000A3010008A3010008A3010008A3010008F0
:10006000A3010008A3010008A3010008A3010008E0
:10007000A3010008A3010008A3010008A3010008D0
:10008000A3010008A3010008A3010008A3010008C0
:10009000A3010008A3010008A3010008A3010008B0
:1000A000A3010008A3010008A3010008A3010008A0
:1000B00025180008A301000800000000A3010008A3
:1000C000A30100080000000000000000A3010008D8
:1000D000000000000D1A0008A30100080000000045
:1000E000A3010008A3010008A301000800F002F822
:1000F00000F03AF80AA090E8000C82448344AAF188
:100100000107DA4501D100F02FF8AFF2090EBAE885
:100110000F0013F0010F18BFFB1A43F0010318473B
:10012000EC2400000C250000103A24BF78C878C1E8
:10013000FAD8520724BF30C830C144BF04680C60ED
:10014000704700000023002400250026103A28BF35
:1001500078C1FBD8520728BF30C148BF0B60704739
:100160001FB51FBD10B510BD00F08DF81146FFF78B
:10017000F7FF01F02BFE00F0ABF803B4FFF7F2FF3E
:1001800003BC01F05AFD00000948804709480047B8
:10019000FEE7FEE7FEE7FEE7FEE7FEE7FEE7FEE737
:1001A000FEE7FEE704480549054A064B7047000094
:1001B000C5170008ED0000082812002028180020AC
:1001C0002814002028140020EFF3108072B6704726
:1001D00080F310887047204C204D25604FF00004BC
:1001E00084F309881E4C4FF0010525701D4C4FF01B
:1001F0008055256062B6FEE730B41A4C4FF080554A
:10020000256030BC704730B4164C4FF080552560E7
:1002100030BC704700BF72B6EFF3098028B12038B8
:1002200080E8F00F10490968086000B50F48804762
:100230005DF804EB0E480F490A7802700A480E492F
:100240000A680260106890E8F00F203080F3098897
:100250004EF0040E62B6704720ED00E00000FFFF94
:100260005A00002004ED00E060000020710E00083C
:100270004F000020500000206800002070477047A9
:10028000704770477047754600F02CF8AE46050081
:100290006946534620F00700854618B020B5FFF7A1
:1002A00081FFBDE820404FF000064FF000074FF0FF
:1002B00000084FF0000B21F00701AC46ACE8C00984
:1002C000ACE8C009ACE8C009ACE8C0098D4670478D
:1002D00010B50446AFF300802046BDE81040FFF79C
:1002E0004CBF000000487047C411002000BFFEE76B
:1002F00070472DE9F041024600250026002000232A
:100300000024002791F803C00CF00F0591F803C0FA
:100310000CF0100CBCF1000F03D091F802C04CEAB5
:10032000050591F800C0BCF1000F31D01468002021
:100330002BE04FF0010C0CFA00F3B1F800C00CEA0E
:1003400003069E4220D183004FF00F0C0CFA03F7F6
:10035000BC4305FA03FC4CEA040491F803C0BCF169
:10036000280F06D14FF0010C0CFA00FCC2F814C0A3
:100370000AE091F803C0BCF1480F05D14FF0010C21
:100380000CFA00FCC2F810C0401C0828D1D314603D
:10039000B1F800C0BCF1FF0F34DD546800202EE03E
:1003A00000F1080C4FF0010808FA0CF3B1F800C096
:1003B0000CEA03069E4221D183004FF00F0C0CFA89
:1003C00003F7BC4305FA03FC4CEA040491F803C0AC
:1003D000BCF1280F05D100F1080C08FA0CF8C2F89E
:1003E000148091F803C0BCF1480F07D100F1080C4C
:1003F0004FF0010808FA0CF8C2F81080401C0828D9
:10040000CED35460BDE8F08141617047016170470F
:100410000AB1016100E04161704700BFFEE70000E2
:1004200010B501210148FFF7F1FF10BD00080140A0
:1004300010B501210148FFF7E7FF10BD000801409A
:1004400010B508210148FFF7E1FF10BD0010014081
:1004500010B508210148FFF7D7FF10BD001001407B
:1004600010B502210148FFF7D1FF10BD0010014077
:1004700010B502210148FFF7C7FF10BD0010014071
:1004800010B504210148FFF7C1FF10BD0010014065
:1004900010B504210148FFF7B7FF10BD001001405F
:1004A00008B50121142001F07BF8FF20ADF8000011
:1004B00010208DF8030003208DF8020069460C48D7
:1004C000FFF717FFFF210A48FFF7A0FF0E20ADF846
:1004D000000010208DF8030003208DF8020069460B
:1004E0000448FFF706FF0E210248FFF78FFF08BD03
:1004F000000801400010014000BFFEE77047000007
:1005000070B5002100230F22C47804B3154C246871
:1005100004F4E064C4F5E064210AC1F10403CA40B4
:10052000447804FA03F184781440214309010E4C05
:100530000678A155047804F01F050124AC40057825
:100540006D11AD0005F1E025C5F8004109E0047822
:1005500004F01F050124AC40044D0678761145F8DF
:10056000264070BD0CED00E000E400E080E100E01A
:1005700002490143024A1160704700000000FA0579
:100580000CED00E070B500240EE00021204600F0E4
:10059000F0F8002504E0002000F07CF9681CC5B2EA
:1005A000802DF8DB601CC4B2082CEEDB70BD0000AF
:1005B00008B50121102000F0F3FF14208DF803008E
:1005C00003208DF802004FF48070ADF800006946FA
:1005D0000A48FFF78EFE4FF40070ADF80000694640
:1005E0000648FFF786FE012211020448FFF710FFBC
:1005F000012251020148FFF70BFF08BD0010014026
:1006000070B50546002415E08020204100EA05026F
:100610004FF400710E48FFF7FBFE012211020C4857
:10062000FFF7F6FE00224FF480710948FFF7F0FE55
:10063000601CC4B2082CE7DB012211020448FFF75A
:10064000E7FE00224FF480710148FFF7E1FE70BD24
:100650000010014010B5012251020A48FFF7D8FEF0
:10066000012211020748FFF7D3FE00224FF4007168
:100670000448FFF7CDFE00224FF480710148FFF7D8
:10068000C7FE10BD0010014010B500224FF40071EC
:100690000648FFF7BDFE012211020448FFF7B8FE2D
:1006A000012251020148FFF7B3FE10BD00100140C6
:1006B00070B5002406E0002500E06D1CB5F57A7FDA
:1006C000FBD3641CB4F57A7FF5D3FFF771FFAE203E
:1006D00000F0D0F8D52000F0CDF8802000F0CAF866
:1006E000A82000F0C7F83F2000F0C4F8D32000F0A5
:1006F000C1F8002000F0BEF8402000F0BBF8A120B7
:1007000000F0B8F8C82000F0B5F8DA2000F0B2F830
:10071000122000F0AFF8812000F0ACF8CF2000F0FC
:10072000A9F8D92000F0A6F8F12000F0A3F8DB200A
:1007300000F0A0F8302000F09DF8A42000F09AF816
:10074000A62000F097F88D2000F094F8142000F017
:1007500091F8AF2000F08EF8FFF714FF70BD10B5D0
:100760000246012000E050430B1EA1F10101FAD125
:1007700010BD70B505460C4645F0B00000F07AF8A3
:10078000102141EA141000F075F804F00F0000F099
:1007900071F870BD2DE9F04105460E461746721EF0
:1007A000D206110E6A1E5206100EFFF7E2FF002459
:1007B00009E0A7F12001134A02EB0111085D00F0E6
:1007C00069F8601CC4B2082CF3DB721ED206110E4D
:1007D0006A1E012303EB4202D0B2FFF7CAFF0024D6
:1007E0000BE0A7F12001074A02EB011204F1080116
:1007F000505C00F04FF8601CC4B2082CF1DBBDE87F
:10080000F08100001C1F00082DE9F04780460E46CD
:1008100017461D46002415E0281B411E0A20FFF73D
:100820009EFFB7FBF0F00A21B0FBF1F201FB1200D2
:1008300000F130093019C1B24A464046FFF7AAFF1D
:10084000601CC4B2AC42E7DBBDE8F0872DE9F041A3
:1008500007460E461546002407E02A5D3019C1B24E
:100860003846FFF797FF601CC4B2285D0028F4D11A
:10087000BDE8F08110B50446FFF7ECFE7820FFF7E5
:10088000BFFE0020FFF7BCFE2046FFF7B9FEFFF7D2
:10089000FBFE10BD10B50446FFF7DCFE7820FFF725
:1008A000AFFE4020FFF7ACFE2046FFF7A9FEFFF7A2
:1008B000EBFE10BD10B500F013F800F0E5FB00F002
:1008C0000DFC00F02DFC00F0B5FB00F087FB00F004
:1008D000C1FC00F065FC00F08BFC00F002F810BDDC
:1008E0007047704706480078012808D1054800780D
:1008F000FF2804D203480078401C02490870704762
:100900005A0000204D00002010B500241A4800783D
:10091000012830D1FFF758FC04461848007820B170
:1009200016480078401E1549087014480078F8B938
:1009300013480078E0B900F0EFFC1248124909783A
:1009400050F82100114908600F48007810490978D3
:1009500088420DD00D480068806B401C0B49096827
:1009600088630C480068401C0A490860FFF74BFC8C
:100970002046FFF72DFC10BD5A0000204D0000203E
:100980004E0000205C0C0020500000206800002079
:100990004F0000203400002010B500240B480078E0
:1009A000012811D1FFF710FC04460948007840B92E
:1009B00008480078FF2804D206480078401C054902
:1009C00008702046FFF704FC10BD00005A0000200C
:1009D0004D0000204E00002010B500241348007880
:1009E000012821D1FFF7F0FB044611480078C0B17F
:1009F0000F480078401E0E4908700846007860B91C
:100A00000C48007828B92046FFF7E2FB00F04AFCCA
:100A10000AE02046FFF7DCFB06E02046FFF7D8FBA4
:100A200002E02046FFF7D4FB10BD00005A00002072
:100A30004E0000204D00002010B50B48007890B902
:100A400000F06AFC0948007809490870094807491C
:100A5000097850F8210008490860084600680749ED
:100A60000860FFF7B8FB10BD5A00002050000020BE
:100A70004F0000205C0C0020680000206000002077
:100A800010B50024022000F0F5F9FFF79DFB0446A5
:100A900000200B4908602046FFF79AFB142000F065
:100AA000E9F9FFF791FB044605480068054908602D
:100AB0000120054908702046FFF78AFB10BD0000A1
:100AC0005C000020440000204C0000207047000023
:100AD0002DE9FE4F06460F4690461C464FF0000992
:100AE000FFF772FB81461F48007828B14846FFF7A0
:100AF0006FFB3C20BDE8FE8F1B4850F8240060BB14
:100B00000120194941F824004846FFF761FB002302
:100B100042463946304600F009F9824600200090EE
:100B200001900346024651460290204600F00AFC1E
:100B3000054635B90D48007801280CD100F0B2FB0C
:100B400009E0FFF741FB81460020074941F82400F6
:100B50004846FFF73DFB2846CCE74846FFF738FB01
:100B60002820C7E74D0000205C0C00205A00002020
:100B70002DE9F04F85B081468A4693461C46DDE953
:100B80000F78129D00200390FFF71EFB039023486F
:100B9000007830B10398FFF71BFB3C2005B0BDE89F
:100BA000F08F1F4850F8240088BB01201C4941F8F1
:100BB00024000398FFF70CFB2A464146384600F014
:100BC000D1FC2B465A465146484600F0AFF80490F7
:100BD0001198CDE9008002953A4620460E9B049973
:100BE00000F0B0FB064636B90E48007801280CD15B
:100BF00000F058FB09E0FFF7E7FA039000200849EE
:100C000041F824000398FFF7E3FA3046C6E7FFE710
:100C10000398FFF7DDFA2820C0E700004D00002010
:100C20005C0C00205A000020704770472DE9F0410D
:100C300006460F4614464FF000081548007818B1D4
:100C400012202070BDE8F081FFF7BEFA8046FF2E2B
:100C500003D11048006890F832600F4850F82650D1
:100C60002DB94046FFF7B4FA43202070EAE7012D82
:100C700005D14046FFF7ACFA43202070E2E7EF646D
:100C80004046FFF7A5FA0020207000BFDAE7000019
:100C90004D000020600000205C0C00207047000028
:100CA0002DE9F04707460D464FF0000A0020286066
:100CB0006860FFF789FA8246FF2F03D11948006860
:100CC00090F83270184850F827402CB95046FFF77A
:100CD0007FFA4320BDE8F087012C04D15046FFF78E
:100CE00077FA4320F6E7207C00F0010020B9504657
:100CF000FFF76EFA4520EDE70026D4F80C90D4F803
:100D000008805046FFF764FA00E0761C58F8041B90
:100D10000029FAD0B0002860A9EB060080006860C6
:100D20000020D7E7600000205C0C002070B504466E
:100D300010464FF080750560051F28462C606FF047
:100D40000106051F28462E604FF01236051F284663
:100D50002E604FF00336051F28462E604FF00236F6
:100D6000051F28462E607610051F28462E60051F99
:100D7000284629604FF01136051F28462E604FF097
:100D80001036051F28462E604FF00936051F2846ED
:100D90002E604FF00836051F28462E604FF00736AC
:100DA000051F28462E604FF00636051F28462E6088
:100DB0004FF00536051F28462E604FF00436051FFC
:100DC00028462E6070BD00002DE9F04105464FF029
:100DD0000008FFF7F9F98046FF2D05D1204800688B
:100DE00090F83250012608E01D48006890F8320063
:100DF000A84201D1012600E000261A4850F82540FB
:100E00002CB94046FFF7E4F94820BDE8F081012CF9
:100E100004D14046FFF7DCF94320F6E794F834703C
:100E20001148C05D94F8351088430F49C8550846ED
:100E3000C05D30B994F836100C48007888430B49EF
:100E4000087094F8300040F0080084F83000404604
:100E5000FFF7BEF9012E01D100F024FA0020D4E7FB
:100E6000600000205C0C0020520000205100002097
:100E70007047000070B5054600261748007800B19D
:100E800070BD1648007800B1FAE71DB3FFF79CF972
:100E900006461348006890F834401248005D104937
:100EA000096891F8351088430E4908550846005DD9
:100EB00040B90B48006890F836100B48007888431A
:100EC0000949087006480068C5623046FFF780F996
:100ED00000F0E8F900BFD3E74D0000204E000020ED
:100EE00060000020520000205100002070B5002654
:100EF00000F072F8FFF768F9064631480068401CB8
:100F00002F4908603046FFF763F92E480078012822
:100F100053D12D48007820B1012804D0022809D1EE
:100F200003E001250BE0002509E001250120264909
:100F3000087004E0012500202349087000BF00BFAD
:100F400005B970BD2148046833E0FFF73DF9064656
:100F5000E06A50B3E06A401EE062E06A28BB94F8A1
:100F6000300000F0370040B114F8300F00F0C80036
:100F7000207001206070303C02E0002084F83100D5
:100F800094F8300000F0080078B93434A0781049A3
:100F9000097808430E49087020780E49085C61788A
:100FA000084314F834190B4A505464693046FFF76B
:100FB0000FF994F832003F28C7D100BFC1E7000005
:100FC000780000205A000020700000206C000020F3
:100FD0005100002052000020704700002DE9F04130
:100FE0005021114800F02CF900250DE0681C86B254
:100FF0000D4800EB051400EB061700202070676019
:101000000AA0E060681C85B2042DEFD3064800EB0F
:10101000051400202070606004A0E06002480449CC
:101020000860BDE8F08100000C0800203F000000CF
:101030003C00002070B5C821114800F001F90023E0
:101040000FE0581C85B203EB83000D4901EB8004CF
:1010500005EB850001EB8006002020706660581CBF
:1010600083B2092BEDD303EB8300054901EB800428
:1010700000202070606008460249086070BD0000D2
:10108000440700203800002000200A4908600A496F
:1010900008700A4908700A4908700A4908700A4924
:1010A00008600A4908600A4908600A4908600A4954
:1010B00008707047780000204D0000204E0000208E
:1010C0005B0000205A000020340000205C0000205B
:1010D00048000020440000204C00002000210A4A63
:1010E0001170002004E00021084A1154411CC8B2CC
:1010F0000828F8D30021064A1170064A1170064AE2
:101100001160064A11607047510000205200002013
:101110004F000020500000206800002060000020E8
:1011200070B54FF47C71194800F08AF84FF4807163
:10113000174800F085F8002413E0601CC5B2C4EB2A
:10114000C40000EB4000114901EB8003C5EBC50072
:1011500000EB400001EB80065E610EA0D864601CCD
:10116000C4B20B2CE9D3C4EBC40000EB4000074928
:1011700001EB80030020586106A0D86400200649D6
:10118000086002480549086070BD00005C0D002041
:101190005C0C00203F0000006C0000206400002078
:1011A00000B587B00320002180220A4BCDE901322F
:1011B000CDE903104FF6FF703F23074A0090074820
:1011C000FFF7D6FC06AA06A13F20FFF72FFD07B0C8
:1011D00000BD00005C0A0020580C002079140008B3
:1011E00075432F4F532D49492049646C6500000019
:1011F00000B587B00320002180220A4BCDE90132DF
:10120000CDE903104FF6FE703E23074A00900748D1
:10121000FFF7AEFC06AA06A13E20FFF707FD07B0C8
:1012200000BD00005C080020580A0020A11400083E
:1012300075432F4F532D49492053746174000000AA
:1012400004E0002200F8012B4A1E91B20029F8D1D7
:10125000704700002DE9F04178211048FFF7F0FFBA
:1012600000240DE0601C86B204EB44000B4901EB46
:10127000C00506EB460001EBC0072F60601C84B27E
:10128000042CEFD304EB4400044901EBC00500201B
:101290002860084602490860BDE8F0814C11002032
:1012A0007400002010B50024FEF78EFF044613489A
:1012B0000078F8B912480078E0B900F02DF811482C
:1012C0001149097850F82100104908600E4800784B
:1012D0000F49097888420DD00C480068806B401C8B
:1012E0000A49096888630B480068401C094908607E
:1012F000FEF782FF2046FEF76BFF10BD4D00002079
:101300004E0000205C0C00205000002068000020EF
:101310004F000020340000200649074A1278885CFC
:101320000649095C034A515C01EBC001044A117093
:10133000704700000C2500085100002052000020DA
:10134000500000202DE9F84F05460F46904699467B
:10135000DDE90AAB00200090FEF736FF00903F4821
:101360000468002C74D0183454F8040C3B4908600D
:101370000098FEF72DFF44F8187CA5760020207613
:101380006076606144F814BC44F80CAC44F8108CEE
:101390000C9824F8080C24F8069C0020E077E8104C
:1013A000207705F00700E076217F01208840A077B4
:1013B000E17E01208840607700206060E060A060EE
:1013C0002062A0626062E062206325A06063183C36
:1013D000002606E0002104F1500040F82610701CA1
:1013E000C6B2002EF6D02046FFF770FB2046FFF76E
:1013F0001BFCFEF7E9FE00901A4840F825401A4809
:10140000006860610020A0611748006810B11648AC
:1014100000688461144804603434A0781349097862
:1014200008431249087020781149085C6178084324
:1014300014F834190E4A50540E480078401C0D49D7
:1014400008700098FEF7C4FE0020BDE8F88FFFE7A3
:101450000098FEF7BDFE4220F7E700006400002080
:101460003F0000005C0C00206C00002051000020B8
:10147000520000205B000020002400BF00BFFEF7E8
:10148000A3FE044605480068401C04490860204645
:10149000FEF79EFEFFF7C9FBF1E700005C000020AD
:1014A000002400BF02E02820FFF7E4FC1948007880
:1014B0000028F8D0184800686421B0FBF1F0164904
:1014C00008600846006828B9002014490870FF2009
:1014D000FFF77AFC00BFFEF777FE0446104800686D
:1014E0001049086000200E4908602046FEF770FE93
:1014F0000C48006808490968B0FBF1F0C0F16400CD
:1015000006490870FFF7CAFB00F00EF81420FFF739
:10151000B1FCE0E74C000020440000204000002027
:101520005C000020480000207CB5002514E06946DE
:101530002846FFF7B5FB064666B9094850F825402E
:1015400044B1012C06D0D4E9020100EB81006064B3
:101550000198A064681CC5B23F2DE8D97CBD00008D
:101560005C0C002002F0010343B102F002032BB136
:1015700002E0491E002308C00029FAD1704700008C
:1015800029B1064AD2690243044BDA6104E0034AF6
:10159000D2698243014BDA617047000000100240BB
:1015A00029B1064A92690243044B9A6104E0034A56
:1015B00092698243014B9A6170470000001002401B
:1015C00030B500210022002400232D4D6D6805F068
:1015D0000C0121B1042905D0082923D105E0294DAA
:1015E000056022E0274D05601FE0254D6D6805F47C
:1015F0007012234D6D6805F48034022505EB92428C
:101600001CB9214D554305600BE01D4D6D6805F477
:1016100000351DB11C4D5543056002E0194D554381
:10162000056002E0174D056000BF00BF144D6D68F6
:1016300005F0F0010909154D6B5C0568DD4045605A
:101640000F4D6D6805F4E061090A104D6B5C45684B
:10165000DD4085600A4D6D6805F46051C90A0B4D87
:101660006B5C4568DD40C560054D6D6805F4404123
:10167000890B074D6B5CC568B5FBF3F5056130BDA3
:101680000010024000127A0000093D0020000020F6
:1016900030000020704710B500F002F810BD0000C7
:1016A0000CB50020019000903348006840F4803071
:1016B0003149086000BF3048006800F400300090F5
:1016C0000198401C0190009818B90198B0F5A06FDE
:1016D000F1D12948006800F4003010B101200090D9
:1016E00001E0002000900098012843D123480068C1
:1016F00040F01000214908600846006820F003000F
:1017000008600846006840F0020008601A48406817
:10171000194948600846406848600846406840F4F7
:10172000806048600846406820F47C1048600846A5
:10173000406840F4E81048600846006840F0807057
:10174000086000BF0C48006800F000700028F9D065
:101750000948406820F0030007494860084640688F
:1017600040F00200486000BF0348406800F00C00F1
:101770000828F9D10CBD00000010024000200240F2
:10178000042808D14FF0E021096941F004014FF02D
:10179000E022116107E04FF0E021096921F0040126
:1017A0004FF0E0221161704710B50548007801281C
:1017B00005D1FFF797F8FFF799FBFFF7A5F810BDE4
:1017C0005A00002010B51348006840F0010011498C
:1017D000086008464068104908400E4948600846BD
:1017E00000680E4908400B4908600846006820F46C
:1017F000802008600846406820F4FE0048604FF4EE
:101800001F008860FFF747FF4FF000600449086041
:1018100010BD0000001002400000FFF8FFFFF6FEC0
:1018200008ED00E010B50121880700F03FF801281D
:1018300026D1144802880088401C124B18800623C9
:1018400001210220FEF7E0FF0E4800883C2190FBBA
:10185000F1F201FB12040223224605210320FEF7C8
:10186000D3FF084800883C2190FBF1F40223224674
:1018700003210846FEF7C8FF0121880700F007F89A
:1018800010BD00001E000020CA4302827047CA43F8
:101890000282704721B1028842F00102028004E016
:1018A00002884FF6FE731A400280704730B5024638
:1018B000002000230024158A05EA0103958905EA22
:1018C000010413B10CB1012000E0002030BD1AB1B9
:1018D00083890B43838102E083898B438381704733
:1018E00001894FF6F8721140018170470022028889
:1018F0001D4B98420ED01D4B98420BD0B0F1804F3B
:1019000008D01B4B984205D01A4B984202D01A4B74
:10191000984204D14FF68F731A404B881A43174BE5
:10192000984207D0164B984204D04FF6FF431A4016
:10193000CB881A4302808B8883850B8803850A4BEA
:1019400098420BD0094B984208D00E4B984205D0D4
:101950000D4B984202D00D4B984201D10B7A038671
:101960000123838270470000002C014000340140B5
:101970000004004000080040000C0040001000403F
:101980000014004000400140004401400048014074
:101990001FB501210846FFF7F3FD4FF08040FFF728
:1019A0009FFF0020ADF80A00ADF806006320ADF8F7
:1019B0000800D120ADF8040000208DF80C0001A92A
:1019C0004FF08040FFF792FF01218807FFF75CFF8F
:1019D000012211469007FFF77AFF4FF4A060FEF74F
:1019E000C7FD1C208DF8000001208DF803000220A7
:1019F0008DF8010001208DF802006846FEF780FD99
:101A000001218807FFF746FF1FBD000010B5FEF754
:101A100069FF40F225511E4800F04CF810B31C48F5
:101A200000F004F9C4B21B48008800F40040C8B9B3
:101A30001848008800F4804060B10A2C03D00020D0
:101A40001449088020E01348008840F40040114900
:101A5000088019E00D2C06D10E48008840F4804023
:101A60000C49088010E00B480088C0F30D000A49BB
:101A70000C5408480088401C064908800846008825
:101A8000C72801DD00200880FEF73EFF10BD0000E2
:101A9000003801401C0000207C06002021B1828912
:101AA00042F40052828104E082894DF6FF731A40AD
:101AB0008281704770B50246002400230025002073
:101AC00040F66A16B14200D100BFC1F3421501F0E1
:101AD0001F03012606FA03F3012D02D19689334034
:101AE00006E0022D02D1168A334001E0968A334087
:101AF0000C12012606FA04F41688344013B10CB116
:101B0000012000E0002070BDF0B50346002400264F
:101B10000025002040F66A17B94200D100BF1846E0
:101B2000C1F3421401F01F06012707FA06F5012C44
:101B300001D10C3004E0022C01D1103000E014304F
:101B40001AB107682F43076002E00768AF430760D8
:101B5000F0BD00002DE9F04786B005460E46002492
:101B6000A24600BFA1460027B08900B100BF2F46A2
:101B70002C8A4CF6FF700440F08804432C82AC8918
:101B80004EF6F3100440B088318908437189084348
:101B90000443AC81AC8A4FF6FF400440B089044353
:101BA000AC8201A8FFF70CFD1F48874202D1DDF887
:101BB00010A001E0DDF80CA0A88900F4004040B1BD
:101BC0000AEBCA0000EB0A1031684900B0FBF1F8DB
:101BD00007E00AEBCA0000EB0A1031688900B0FB8D
:101BE000F1F86420B8FBF0F004012009642101FB46
:101BF0001089A88900F4004040B1322000EBC900F0
:101C0000B0FBF1F000F00700044308E0322000EBE5
:101C100009106421B0FBF1F000F00F0004432C81A7
:101C200006B0BDE8F0870000003801400146888812
:101C3000C0F30800704700BFFEE700BF70470024F4
:101C400009E0FEF7C1FA04462046FEF7C1FA4FF458
:101C5000FA7000F02FF8F4E710B56FF00400FFF70A
:101C60008FFD104800681049B0FBF1F00F49087073
:101C70000C4800680C49B0FBF1F441F28830444351
:101C800005200B4908804FF0E020006940F0020079
:101C90004FF0E021086108464461006940F001000E
:101CA000086110BD0000002000127A00140000201E
:101CB0001600002070B504460F480078A0B10F4808
:101CC000007888B90E480088844206DB0C480088FA
:101CD00094FBF0F5284600F01DF80948008894FBB5
:101CE000F0F100FB114084B24FF47A7104FB01F073
:101CF00000F016F870BD00005A0000204D000020D2
:101D00001600002010B5FEF747FE10BD10B5FEF717
:101D100063FE10BD10B504462046FFF7ABF810BDBA
:101D20002DE9F047074600264FF0E020D0F8149048
:101D30001148007807FB00F800BFFFF7E3FF4FF002
:101D4000E020856911E04FF0E0208469AC420CD0BE
:101D5000AC4202D2281B064403E0A9EB040028444D
:101D600006442546464500D300E0ECE700BFFFF7F8
:101D7000CDFFBDE8F0870000140000200BE0FEF767
:101D80004FFB4FF44870FFF795FFFEF751FB4FF400
:101D90004870FFF78FFFF2E717E0FEF751FBFEF701
:101DA00067FB4FF49670FFF785FFFEF759FBFEF7D0
:101DB0006FFB4FF49670FFF77DFFFEF761FBFEF7B8
:101DC00047FB4FF49670FFF775FFE6E710B5FFF796
:101DD00043FF4FF4A060FEF7CBFB4FF4E13000F07F
:101DE0004DF8FEF75DFBFEF763FC09A2052101201B
:101DF000FEF72CFDFFF7CCFDFEF75CFD0A23064A3B
:101E000000210648FEF764FEFEF716FE002010BD16
:101E100057656C436F6D650078020020211E000835
:101E200070B50446002500BFFEF72AFEFEF7CCF988
:101E3000054607230B4A00210B48FEF749FE0623FF
:101E40000A4A00210A48FEF743FE0523094A0021F9
:101E50000948FEF73DFE0A20FEF7B6FF2846FEF7CA
:101E6000B7F970BD780300207D1D000878040020BC
:101E7000991D0008780600203F1C000810B586B0A8
:101E80000446012144F20400FFF78AFB4FF400707E
:101E9000ADF8140003208DF8160018208DF81700F7
:101EA00005A91C48FEF725FA4FF48060ADF8140030
:101EB00004208DF8170005A91648FEF71AFA252008
:101EC0008DF8000003208DF801008DF8020001203C
:101ED0008DF803006846FEF713FB01940020ADF86F
:101EE0000800ADF80A00ADF80C00ADF810000C20A9
:101EF000ADF80E0001A90848FFF72CFE012240F2C0
:101F000025510548FFF700FE01210348FFF7C6FDF4
:101F100006B010BD0008014000380140000000007C
:101F2000000000000000000000000000000000F8B9
:101F300000000000000000333000000000100C061C
:101F4000100C0600000000000000000040C07840B7
:101F5000C0784000043F04043F040400007088FC83
:101F600008300000001820FF211E0000F008F000DB
:101F7000E018000000211C031E211E0000F008884C
:101F8000700000001E2123241927211010160E00B6
:101F9000000000000000000000000000000000E061
:101FA0001804020000000007182040000002041876
:101FB000E00000000040201807000000404080F0D2
:101FC000804040000202010F01020200000000F008
:101FD000000000000101011F0101010000000000DC
:101FE0000000000080B07000000000000000000051
:101FF00000000000000101010101010100000000DA
:102000000000000000303000000000000000000070
:1020100080601804006018060100000000E010084D
:102020000810E000000F102020100F00001010F822
:10203000000000000020203F202000000070080861
:1020400008887000003028242221300000300888E1
:10205000884830000018202020110E000000C02009
:1020600010F8000000070424243F240000F808882A
:10207000880808000019212020110E0000E01088B7
:1020800088180000000F112020110E0000380808E9
:10209000C83808000000003F0000000000708808F9
:1020A00008887000001C222121221C0000E010087A
:1020B0000810E0000000312222110F00000000C0D3
:1020C000C000000000000030300000000000008070
:1020D0000000000000008060000000000000804060
:1020E0002010080000010204081020004040404079
:1020F00040404000040404040404040000081020CC
:102100004080000000201008040201000070480810
:102110000808F0000000003036010000C030C82878
:10212000E810E0000718272423140B000000C03833
:10213000E0000000203C23020227382008F88888AD
:1021400088700000203F202020110E00C0300808B9
:1021500008083800071820202010080008F8080890
:102160000810E000203F202020100F0008F8888889
:10217000E8081000203F20202320180008F8888855
:10218000E8081000203F200003000000C0300808CD
:102190000838000007182020221E020008F8080056
:1021A0000008F808203F210101213F20000808F81D
:1021B000080800000020203F202000000000080840
:1021C000F8080800C08080807F00000008F888C000
:1021D00028180800203F20012638200008F80800B1
:1021E00000000000203F20202020300008F8F800E8
:1021F000F8F80800203F003F003F200008F830C0FA
:102200000008F808203F200007183F00E0100808E9
:102210000810E0000F10202020100F0008F8080818
:102220000808F000203F210101010000E01008082B
:102230000810E0000F18242438504F0008F8888850
:1022400088887000203F2000030C30200070880830
:10225000080838000038202121221C00180808F83E
:10226000080818000000203F2000000008F80800BF
:102270000008F808001F202020201F000878880090
:1022800000C83808000007380E010000F80800F800
:102290000008F800033C0700073C030008186880AA
:1022A0008068180820302C03032C30200838C80020
:1022B000C83808000000203F20000000100808086F
:1022C000C83808002038262120201800000000FE11
:1022D000020202000000007F40404000000C30C0BD
:1022E00000000000000000010638C00000020202E9
:1022F000FE000000004040407F000000000004029B
:1023000002020400000000000000000000000000C5
:1023100000000000808080808080808000020204B5
:1023200000000000000000000000000000008080AD
:10233000808000000019242222223F2008F800801B
:1023400080000000003F112020110E0000000080DE
:1023500080800000000E112020201100000000806D
:102360008088F800000E112020103F20000080809F
:1023700080800000001F222222221300008080F0B3
:10238000888888180020203F2020000000008080DE
:1023900080808000006B94949493600008F8008023
:1023A00080800000203F210000203F20008098987E
:1023B000000000000020203F2020000000000080DE
:1023C0009898000000C08080807F000008F800001E
:1023D00080808000203F24022D302000000808F873
:1023E000000000000020203F20200000808080802E
:1023F00080808000203F20003F20003F80800080C0
:1024000080800000203F210000203F2000008080CD
:1024100080800000001F202020201F00808000807E
:102420008000000080FFA12020110E00000000802D
:1024300080808000000E112020A0FF80808080001E
:102440008080800020203F2120000100000080804B
:10245000808080000033242424241900008080E040
:10246000808000000000001F20200000808000000D
:1024700000808000001F202020103F2080808000EE
:102480000080808000010E300806010080800080FE
:10249000008080800F300C030C300F000080800023
:1024A000808080000020312E0E312000808080004E
:1024B0000080808080818E701806010000808080FE
:1024C000808080000021302C22213000000000009C
:1024D000807C020200000000003F4040000000003D
:1024E000FF00000000000000FF0000000002027C6E
:1024F000800000000040403F000000000006010195
:1025000002020404000000000000000000000100BE
:1025100002000100030001000200010004000100AC
:10252000020001000300010002000100050001009B
:10253000020001000300010002000100040001008C
:10254000020001000300010002000100060001007A
:10255000020001000300010002000100040001006C
:10256000020001000300010002000100050001005B
:10257000020001000300010002000100040001004C
:102580000200010003000100020001000700010039
:10259000020001000300010002000100040001002C
:1025A000020001000300010002000100050001001B
:1025B000020001000300010002000100040001000C
:1025C00002000100030001000200010006000100FA
:1025D00002000100030001000200010004000100EC
:1025E00002000100030001000200010005000100DB
:1025F00002000100030001000200010004000100CC
:102600000200010003000100020001002C26000866
:10261000000000207C00000028010008A826000817
:102620007C000020AC1700004401000800A24A040E
:102630000000000000000000010203040607080972
:10264000000000000000000000000000000000008A
:102650000102030401020304060708090204060834
:10266000000000000000000000000000000000006A
:10267000000000000000000000000000000000005A
:10268000000000000000000000000000000000004A
:10269000000000000000000000000000000000003A
:0826A000000000000000000032
:04000005080000ED02
:00000001FF
