:020000040800F2
:100000007007002051120008350500083705000868
:100010003B0500083F0500084305000800000000FC
:10002000000000000000000000000000470500087C
:1000300049050008000000004B0500084D050008B8
:100040006B1200086B1200086B1200086B1200089C
:100050006B1200086B1200086B1200086B1200088C
:100060006B1200086B1200086B1200086B1200087C
:100070006B1200086B1200086B1200086B1200086C
:100080006B1200086B1200086B1200086B1200085C
:100090006B1200086B1200086B120008EB0E0008D0
:1000A0006B1200086B1200086B1200086B1200083C
:1000B0006B1200086B120008000000006B120008B1
:1000C0006B12000800000000000000006B12000826
:1000D00000000000A91000086B12000800000000DA
:1000E000C10E00086B1200086B12000800F002F845
:1000F00000F03AF80AA090E8000C82448344AAF188
:100100000107DA4501D100F02FF8AFF2090EBAE885
:100110000F0013F0010F18BFFB1A43F0010318473B
:100120001034000030340000103A24BF78C878C181
:10013000FAD8520724BF30C830C144BF04680C60ED
:10014000704700000023002400250026103A28BF35
:1001500078C1FBD8520728BF30C148BF0B60704739
:100160001FB51FBD10B510BD02F0B1F81146FFF765
:10017000F7FF00F05AF902F0CFF803B4FFF7F2FFEF
:1001800003BC00F037FF000070B50025C9480088A7
:10019000C0F30D05012D08D1C7480078012818D0FB
:1001A000C5480078022814D013E0042D11D1002492
:1001B000002606E004EB84004400BF48805D044450
:1001C000761CAE42F6DB204600F077FEBB490C8081
:1001D00000BF0020B749088070BD10B5B74800883F
:1001E000B749098888420BD1B6A20521012000F049
:1001F00040FC00F0CCFA00F0C4FA00F0B6FA22E0BD
:10020000AE480088AE49098888420BDDB0A20121C2
:10021000084600F02EFC00F0A2FA00F0B2FA00F05E
:10022000BCFA10E0A5480088A549098888420ADA86
:10023000ABA20121084600F01CFC00F09CFA00F083
:1002400094FA00F0AAFA10BD2DE9FC4105460E46CD
:10025000B4B200270020009001900DE00A2094FB2A
:10026000F0F100FB114080B22DF817000A2094FB3A
:10027000F0F084B2781C87B2002CEFD1BDF80610E4
:100280009B4801F057FF00BF4021994801F0C0FF93
:100290000128F9D1BDF80410954801F04BFF00BFCB
:1002A0004021934801F0B4FF0128F9D1BDF80210B4
:1002B0008F4801F03FFF00BF40218D4801F0A8FFAB
:1002C0000128F9D1BDF80010894801F033FF00BFC3
:1002D0004021874801F09CFF0128F9D1A9B2844848
:1002E00001F028FF00BF4021814801F091FF012863
:1002F000F9D10D217E4801F01DFF00BF40217C484F
:1003000001F086FF0128F9D10A21794801F012FF96
:1003100000BF4021764801F07BFF0128F9D1BDE8FC
:10032000FC8110B500F0C6FD64490988884208D0F8
:1003300000F0C0FD61490880084601880120FFF7F0
:1003400083FF04235D4802880821184600F0AFFBB4
:1003500010BD10B50A21092000F07BFA654908801C
:100360000423084602880D21022000F0A0FB61480A
:10037000008800EBC0004000052190FBF1F0A0F5E3
:100380009050A938B0F5A66F02DB40F246500AE063
:100390005848008800EBC0004000052190FBF1F0B8
:1003A000A0F59050A9384649088052480088B0F519
:1003B000A66F01DA002001E041480088404908802A
:1003C0000423084602880821022000F070FB00F098
:1003D000DEFC494908800846B0F90000642190FB22
:1003E000F1F4022322460721032000F060FB42487B
:1003F000B0F90000642190FBF1F201FB120402232A
:1004000022460A21032000F052FB3C48006839498B
:100410000988884208D03748008838490860284849
:1004200001880220FFF710FF10BD00BF00F078FD2B
:100430004FF4A06000F02CFF00F0D7FB30A20121A8
:10044000022000F016FB32A20121032000F011FB74
:1004500033A20121042000F00CFB00F0A7F900F00A
:100460001FFC00F0D9FC00F063F94FF4E13000F01C
:10047000CFFD1DE0FFF76DFF1E48008802F000FC75
:100480000546214602F0DCFC04462949204602F0DC
:100490000BFC0446FFF745FFFFF79FFEFA2000F034
:1004A0007CFD0448008800F4004008B1FFF76CFEB2
:1004B000E0E700003000002048000020020000209B
:1004C0000400002054205265616368202020200031
:1004D000545F66757220544F4F204C4F57210000D7
:1004E000545F66757220544F4F204869676800005A
:1004F0000038014000000020060000200C00002011
:10050000545F6675723A20202020204300000000CE
:10051000545F656E763A20202E20204300000000B4
:10052000545F7365743A20202020204300000000AF
:1005300000007A44704700BFFEE700BFFEE700BF3F
:10054000FEE700BFFEE77047704770477047000046
:100550000CB50020019000906C48006840F4803099
:100560006A49086000BF6948006800F400300090E4
:100570000198401C0190009818B90198B0F5A06F3F
:10058000F1D16248006800F4003010B10120009001
:1005900001E0002000900098012843D15C480068E9
:1005A00040F010005A4908600846006820F0030037
:1005B00008600846006840F0020008605348406840
:1005C000524948600846406848600846406840F420
:1005D000806048600846406820F47C104860084607
:1005E000406840F4E81048600846006840F08070B9
:1005F000086000BF4548006800F000700028F9D08E
:100600004248406820F0030040494860084640687E
:1006100040F00200486000BF3C48406800F00C0019
:100620000828F9D10CBD10B5FFF792FF10BD10B529
:100630003648006840F001003449086008464068C8
:10064000344908403149486008460068324908404A
:100650002E4908600846006820F48020086008469B
:10066000406820F4FE0048604FF41F008860FFF7E8
:10067000DAFF4FF000602949086010BD10B5002175
:1006800000200022214B5B6803F00C0121B10429FA
:1006900006D0082928D107E0214B224C236027E00F
:1006A0001F4B204C236023E0184B5B6803F4701051
:1006B000164B5B6803F48032022303EB904022B9AF
:1006C000194B4343174C23600DE0104B5B6803F458
:1006D000003323B1144B4343124C236003E0104B0F
:1006E0004343104C236003E00D4B0E4C236000BFCE
:1006F00000BF064B5B68C3F303130C4CE15C094B72
:100700001B68CB40074C236010BD00000010024066
:10071000002002400000FFF8FFFFF6FE08ED00E0B9
:1007200000127A001000002000093D001400002093
:1007300008B50121102001F05DFB0E20ADF800008E
:1007400010208DF8030003208DF80200694616483A
:1007500001F094F80E21144801F03DF908BD10B5E0
:100760000221114801F039F910BD10B502210E48DF
:1007700001F031F910BD10B504210B4801F02DF93D
:1007800010BD10B50421084801F025F910BD10B5C1
:100790000821054801F021F910BD10B508210248D3
:1007A00001F019F910BD00000010014000B587B03C
:1007B00001214FF4C16001F01DFB4FF4004001F036
:1007C0007DFA0220ADF8040000208DF8070001A991
:1007D0002B4801F053F82B4800F0C8FD0020029090
:1007E0008DF80C008DF80D004FF46020049000206F
:1007F000059001208DF8180002A9224800F0DDFDC7
:100800000121204800F005FE1E4800F024FE1D488E
:1008100000F030FE00BF1B4800F031FE0028FAD186
:1008200007B000BD10B50446072301222146154834
:1008300000F05BFE0121134800F02BFE00BF0221F7
:10084000104800F097FF0028F9D00E4800F0B4FEE1
:1008500010BD2DE9F04107460C460025002608E0B2
:100860003846FFF7DFFF0544052000F096FB701CBB
:10087000C6B2A642F4DBB5FBF4F080B2BDE8F0816D
:10088000000C01400024014008B50121102001F0B6
:10089000B1FA14208DF8030003208DF802004FF404
:1008A0008070ADF800006946FB4800F0E7FF4FF4A8
:1008B0000070ADF800006946F74800F0DFFF012244
:1008C0001102F54801F08BF801225102F24801F0C3
:1008D00086F808BD10B501225102EF4801F07FF8FB
:1008E00001221102EC4801F07AF800224FF4007165
:1008F000E94801F074F800224FF48071E64801F0F5
:100900006EF810BD10B500224FF40071E24801F0FE
:1009100066F801221102E04801F061F8012251025B
:10092000DD4801F05CF810BD70B50546002415E007
:100930008020204100EA05024FF40071D64801F002
:100940004EF801221102D44801F049F800224FF478
:100950008071D14801F043F8601CC4B2082CE7DB79
:1009600001221102CC4801F03AF800224FF48071C4
:10097000C94801F034F870BD10B50446FFF7AAFF6E
:100980007820FFF7D1FF0020FFF7CEFF2046FFF7CA
:10099000CBFFFFF7B7FF10BD10B50446FFF79AFF76
:1009A0007820FFF7C1FF4020FFF7BEFF2046FFF78A
:1009B000BBFFFFF7A7FF10BD70B505460C4645F01D
:1009C000B000FFF7D9FF102141EA1410FFF7D4FF60
:1009D00004F00F00FFF7D0FF70BD70B500240EE0EB
:1009E00000212046FFF7E8FF002504E00020FFF784
:1009F000D3FF681CC5B2802DF8DB601CC4B2082C84
:100A0000EEDB70BD2DE9F04105460E461746721E1D
:100A1000D206110E6A1E5206100EFFF7CDFF0024FB
:100A200009E0A7F120019D4A02EB0111085DFFF7E3
:100A3000B3FF601CC4B2082CF3DB721ED206110E89
:100A40006A1E012303EB4202D0B2FFF7B5FF002478
:100A50000BE0A7F12001914A02EB011204F1080119
:100A6000505CFFF799FF601CC4B2082CF1DBBDE8B5
:100A7000F0812DE9F04107460E461546002407E0B7
:100A80002A5D3019C1B23846FFF7BCFF601CC4B202
:100A9000285D0028F4D1BDE8F08110B502460120A0
:100AA00000E050430B1EA1F10101FAD110BD2DE968
:100AB000F04780460E4617461D46002415E0281BC9
:100AC000411E0A20FFF7E9FFB7FBF0F00A21B0FB57
:100AD000F1F201FB120000F130093019C1B24A46AF
:100AE0004046FFF78FFF601CC4B2AC42E7DBBDE8B5
:100AF000F0872DE9F0478146884615461E46002DB1
:100B000006DB2B2241464846FFF77CFF2F4605E0D7
:100B10002D2241464846FFF775FF6F42002417E03B
:100B2000301B411E0A20FFF7B8FFB7FBF0F00A2187
:100B3000B0FBF1F201FB120000F1300A08EB0400F7
:100B4000401CC1B252464846FFF75CFF601CC4B26D
:100B5000B442E5DBBDE8F0872DE9F04781460E465B
:100B600090461F4600241DE0381B411E1020FFF751
:100B700094FFB8FBF0F000F00F050A2D08DA05F13C
:100B80003000C2B23019C1B24846FFF73BFF07E060
:100B900005F13700C2B23019C1B24846FFF732FF43
:100BA000601CC4B2BC42DFDBBDE8F0872DE9F04732
:100BB00080460E4617461D46002412E0281B411EA3
:100BC0000220FFF76AFFB7FBF0F000F0010000F130
:100BD00030093019C1B24A464046FFF713FF601C86
:100BE000C4B2AC42EADBBDE8F08770B5002406E091
:100BF000002500E06D1CB5F57A7FFBD3641CB4F5CD
:100C00007A7FF5D3FFF740FEAE20FFF7B5FED52083
:100C1000FFF7B2FE8020FFF7AFFEA820FFF7ACFE83
:100C20003F20FFF7A9FED320FFF7A6FE0020FFF725
:100C3000A3FE4020FFF7A0FEA120FFF79DFEC820E5
:100C4000FFF79AFEDA20FFF797FE1220FFF794FED7
:100C50008120FFF791FECF20FFF78EFED920FFF70E
:100C60008BFEF120FFF788FEDB20FFF785FE3020AA
:100C7000FFF782FEA420FFF77FFEA620FFF77CFE91
:100C80008D20FFF779FE1420FFF776FEAF20FFF7E7
:100C900073FEFFF7A2FE70BD001001403E2F00085A
:100CA00000B585B00121880201F0A4F84FF400409E
:100CB00001F004F8504800F059FB002000908DF836
:100CC00004008DF805004FF460200290002003908E
:100CD00001208DF810006946474800F06EFB0120A6
:100CE00000F028FD0121444800F093FB424800F049
:100CF000B2FB414800F0BEFB00BF3F4800F0BFFB25
:100D00000028FAD105B000BD10B504460723012222
:100D10002146394800F0E9FB0121374800F0B9FBD2
:100D200000BF0221344800F025FD0028F9D03248E8
:100D300000F042FC10BD70B50024002509E0102031
:100D4000FFF7E2FF204484B2052000F026F9681C7A
:100D5000C5B20A2DF3DB0A2094FBF0F080B270BD1F
:100D60002DE9F04107460C460025002608E03846EC
:100D7000FFF7CAFF0544052000F00FF9701CC6B24A
:100D8000A642F4DBB5FBF4F080B2BDE8F0812DE9BA
:100D9000F05F14211020FFF7E3FF8346584601F06F
:100DA0006FFF804601F0DEFE06464FF06632134BC1
:100DB00001F0F0FC04460D4622462B46104811492E
:100DC00001F0E6FD8046104A104B01F05BFB064641
:100DD00000220F4B01F0AEFA04460D4600220D4BE7
:100DE0002046294601F0D6FC064601F0A3FC0FFA86
:100DF00080FA5046BDE8F09F0028014066664A3FF1
:100E0000E17A14AE47E1F63F22FDF675E09C713FB2
:100E100000003940000024401FB50121082000F0E7
:100E2000E9FF0121084600F0E5FF48208DF80F009A
:100E30004001ADF80C0003208DF80E0003A93648E0
:100E400000F01CFD0821012000F02EFE0B210120E6
:100E500000F02AFE4FF41060019001208DF80A0086
:100E600000208DF808000C208DF8090001A800F082
:100E70006FF94FF4A06000F00BFA28208DF8000005
:100E800001208DF8030000208DF801008DF802008C
:100E9000684600F002FA17208DF8000001208DF856
:100EA000030002208DF801008DF80200684600F072
:100EB000F4F91FBD194800887047184A1080704720
:100EC00010B54FF4006000F0A9F901280CD11348C7
:100ED0000088002804DD11480088401E0F49088062
:100EE0004FF4006000F0ABF910BD10B54FF4807006
:100EF00000F094F901280ED10848008840F24751CB
:100F0000884204DA05480088401C044908804FF4F0
:100F1000807000F094F910BD000C01402400002006
:100F200010B56FF0040000F002FA2E4800682E4958
:100F3000B0FBF1F02D4908700846007800EB400145
:100F4000C1EBC0104FF6FF7101EAC00028490880CC
:100F500010BD0146254A12784A434FF0E0235A61FA
:100F600000229A611A46126942F001021A6100BF1A
:100F70004FF0E022106900F001021AB100F4803253
:100F8000002AF5D04FF0E022126922F001024FF062
:100F9000E0231A6100229A6170470146144A1288C0
:100FA0004A434FF0E0235A6100229A611A461269BF
:100FB00042F001021A6100BF4FF0E022106900F018
:100FC00001021AB100F48032002AF5D04FF0E0227D
:100FD000126922F001024FF0E0231A6100229A61A7
:100FE000704700001000002000127A002600002048
:100FF0002800002000BF704700BF4A4A128802F054
:101000004002002AF9D0C2B2464B1B1D1A8070471D
:1010100010B586B00446012144F2040000F0EAFE57
:101020004FF40070ADF8140003208DF8160018205E
:101030008DF8170005A93C4800F020FC4FF48060B3
:10104000ADF8140004208DF8170005A9364800F00B
:1010500015FC25208DF8000003208DF801008DF887
:10106000020001208DF80300684600F016F9019493
:101070000020ADF80800ADF80A00ADF80C00ADF89E
:1010800010000C20ADF80E0001A9264800F059FF11
:10109000012240F22551234800F0EBFF01212148B5
:1010A00000F0DBFF06B010BD10B540F225511D4821
:1010B00001F0C4F810B31B4801F040F8C4B21B485B
:1010C000008800F40040C8B91848008800F4804047
:1010D00060B10A2C03D000201449088020E0134896
:1010E000008840F400401149088019E00D2C06D119
:1010F0000E48008840F480400C49088010E00B48FE
:101100000088C0F30D000A490C5408480088401CB0
:101110000649088008460088C72801DD00200880AD
:1011200010BD0000003801400008014030000020E0
:1011300048000020002044490860091D0860091D7E
:101140000860091D086041483F4914310860704734
:1011500000213D498279002A3AD00A461268036884
:101160009A430B461A600A1D126803689A430B1DC6
:101170001A60027911440A6803681A430A60324A05
:101180000832126803689A432F4B08331A601A1DFD
:10119000126803689A432C4B0C331A604279102A68
:1011A0000ED11A1F126803681A43274B08331A60BE
:1011B0001A1D126803681A43234B0C331A600DE0A2
:1011C0002149427911440A6803681A430A6005E01C
:1011D000027911440A6803689A430A607047002143
:1011E000016001710C214171002181717047164924
:1011F000103109680143144A1032116070470146EA
:101200000020114A143212680A400AB1012000E09D
:10121000002070470C4914310860704701460020D7
:101220000022094B1B6803EA0102074B14331B68B9
:101230000B4013B10AB1012000E0002070470249C1
:10124000143108607047000000040140FFFF0F00E8
:101250000948804709480047FEE7FEE7FEE7FEE74A
:10126000FEE7FEE7FEE7FEE7FEE7FEE70448054986
:10127000054A064B704700002F060008ED000008E5
:101280007001002070070020700300207003002010
:1012900031490143314A1160704770B50021002384
:1012A0000F22C47804B32D4C246804F4E064C4F520
:1012B000E064210AC1F10403CA40447804FA03F14E
:1012C0008478144021430901254C0678A1550478FF
:1012D00004F01F050124AC4005786D11AD0005F147
:1012E000E025C5F8004109E0047804F01F05012459
:1012F000AC401C4D0678761145F8264070BD1A4A60
:101300000A400243154B1B1F1A60704739B1134A3C
:10131000121D12680243114B1B1D1A6006E00F4A92
:10132000121D126882430D4B1B1D1A607047042862
:1013300008D14FF0E021096941F004014FF0E022AB
:10134000116107E04FF0E021096921F004014FF03D
:10135000E0221161704700000000FA050CED00E08A
:1013600000E400E080E100E080FFFF1F10B50446CC
:10137000FA48844208D10121401500F055FD0021B2
:10138000601500F051FD17E0F548844208D10121B5
:10139000001500F049FD0021201500F045FD0BE08F
:1013A000F048844208D10121C80300F03DFD00212E
:1013B0004FF4004000F038FD10BD30B5024600206B
:1013C00000235068E84C20400D790C6844EA05245D
:1013D000204350609068E54C2040D1E902542C43F2
:1013E0004D7944EA450420439060D06A20F47000AF
:1013F0000C7C641EE4B2234340EA0350D06230BD4B
:1014000000210160017141718160C160012101749D
:10141000704721B1826842F00102826003E0826875
:1014200022F001028260704721B1826842F480722A
:10143000826003E0826822F480728260704710B597
:101440000023CBB21AB144681C43446002E04468F4
:101450009C43446010BD816841F008018160704781
:10146000014600208A6802F008020AB1012000E06B
:1014700000207047816841F0040181607047014697
:1014800000208A6802F004020AB1012000E0002076
:10149000704721B1826842F4A002826003E0826852
:1014A00022F4A00282607047014600208A6802F49C
:1014B00080020AB1012000E00020704710B50A4602
:1014C00000210023416821F46041531E41EA433169
:1014D000416010BD21B1426842F40062426003E005
:1014E000426822F4006242607047F0B504460D463F
:1014F00000200021092D11DDE068A5F10A0606EBA8
:101500004607072606FA07F18843A5F10A0606EB07
:10151000460603FA06F10843E0600CE0206905EB9B
:101520004507072606FA07F1884305EB450603FA47
:1015300006F108432061072A0FDA606B561E06EB9E
:1015400086071F2606FA07F18843561E06EB860615
:1015500005FA06F10843606322E00D2A0FDA206BDA
:10156000D61F06EB86071F2606FA07F18843D61F0B
:1015700006EB860605FA06F10843206310E0E06AF0
:10158000A2F10D0606EB86071F2606FA07F188432F
:10159000A2F10D0606EB860605FA06F10843E062A5
:1015A000F0BD21B1826842F48012826003E082685B
:1015B00022F48012826070470146C86C80B2704786
:1015C00066484C300068704721B1426842F480623E
:1015D000426003E0426822F480624260704721B1B9
:1015E000426842F48052426003E0426822F4805232
:1015F000426070470A460021816821F4E0411143AE
:101600008160704721B1826842F40042826003E049
:10161000826822F400428260704721B1826842F4FD
:101620000212826003E0826822F402128260704734
:10163000014600208A6802F400120AB1012000E08D
:1016400000207047F0B50446154600200022002611
:10165000092911DDE068A1F10A0707EB470C07270C
:1016600007FA0CF29043A1F10A0707EB470703FAC8
:1016700007F21043E0600CE0206901EB410C072702
:1016800007FA0CF2904301EB410703FA07F210430B
:101690002061A06BC0F30156EF1C06F1010CA7EB13
:1016A0000C0707EB870C1F2707FA0CF29043EF1C7F
:1016B00006F1010CA7EB0C0707EB870701FA07F20D
:1016C0001043A063F0BD10B50A4600210023816BD2
:1016D00021F44011531E41EA0351816310BD08B546
:1016E000002300930090009B0B440093009B1A6022
:1016F00008BD08B5024600200090009201F12800C4
:10170000009B184400900098006880B208BD0A460B
:1017100000214168164B19401143416070474162F6
:10172000826270470A460021416821F01F0111437F
:101730004160704740B109490831096841F400012E
:10174000064A0832116007E004490831096821F4AB
:101750000001024A08321160704700000024014075
:1017600000280140003C0140FFFEF0FFFDF7F1FFC3
:10177000FFFD3FFF0246002013680B400BB1012024
:1017800000E000207047CA430260704770B502460F
:101790000020002300240B125568CEB205EA06048F
:1017A00015681D4015B10CB1012000E0002070BD8E
:1017B00000220A12D34303607047000010B50446AC
:1017C000CC48844208D10121042000F02DFB0021E7
:1017D000042000F029FB46E0C748844208D10121DB
:1017E000082000F021FB0021082000F01DFB3AE05A
:1017F000C248844208D10121102000F015FB0021CD
:10180000102000F011FB2EE0BD48844208D10121D8
:10181000202000F009FB0021202000F005FB22E041
:10182000B848844208D10121402000F0FDFA00218F
:10183000402000F0F9FA16E0B348844208D10121B3
:10184000802000F0F1FA0021802000F0EDFA0AE09B
:10185000AE48844207D10121801500F0E5FA00214D
:10186000A01500F0E1FA10BD10B50121084600F006
:10187000DBFA0021012000F0D7FA10BD2DE9F0417C
:10188000024600250026002000230024002791F8AE
:1018900003C00CF00F0591F803C00CF0100CBCF164
:1018A000000F03D091F802C04CEA050591F800C082
:1018B000BCF1000F31D0146800202BE04FF0010C78
:1018C0000CFA00F3B1F800C00CEA03069E4220D1E6
:1018D00083004FF00F0C0CFA03F7BC4305FA03FC2E
:1018E0004CEA040491F803C0BCF1280F06D14FF074
:1018F000010C0CFA00FCC2F814C00AE091F803C015
:10190000BCF1480F05D14FF0010C0CFA00FCC2F8F5
:1019100010C0401C0828D1D31460B1F800C0BCF13D
:10192000FF0F34DD546800202EE000F1080C4FF06A
:10193000010808FA0CF3B1F800C00CEA03069E4255
:1019400021D183004FF00F0C0CFA03F7BC4305FACA
:1019500003FC4CEA040491F803C0BCF1280F05D144
:1019600000F1080C08FA0CF8C2F8148091F803C0D2
:10197000BCF1480F07D100F1080C4FF0010808FA3C
:101980000CF8C2F81080401C0828CED35460BDE883
:10199000F0814FF6FF710180022181700421C17036
:1019A00070470246002093680B400BB1012000E015
:1019B000002070470146886880B2704702460020C8
:1019C000D3680B400BB1012000E0002070470146B6
:1019D000C86880B2704701617047416170470AB1C1
:1019E000016100E041617047C16070474FF480328F
:1019F0000A4382618161826182698269704702461D
:101A00000020434B18684FF68073184040EA0210DC
:101A100008433F4B186070473E49C8617047F0B5B6
:101A20000A46002300240021002500F00046B6F1FC
:101A3000004F02D1364EF16901E0354E7168C0F3B6
:101A4000034583B200F44016B6F5401F08D121F0DB
:101A500070612F4E766826F070662D4F7E6012E022
:101A600000F48016B6F5801F06D1032606FA05F4A9
:101A7000A14341F0706106E0460D360103FA06F617
:101A8000B14341F0706122B1460D360103FA06F60A
:101A9000314300F00046B6F1004F02D11C4EF16117
:101AA00001E01B4E7160F0BD30B500228B071C0FAA
:101AB0000F2303FA04F2164B08338C1053F824302A
:101AC0009343134C08348D1044F8253023468C1072
:101AD00053F824308C07240F00FA04F423430C4CF1
:101AE00008348D1044F8253030BD0A49DC310860D7
:101AF0007047000000080140000C01400010014048
:101B00000014014000180140001C01400020014069
:101B10000000014000002042DF48006840F0010062
:101B2000DD49086008464068DC490840DA494860F9
:101B300008460068DA490840D74908600846006846
:101B400020F4802008600846406820F4FE004860C9
:101B50004FF41F0088607047CF49096821F4803135
:101B6000CD4A11601146096821F480211160B0F559
:101B7000803F03D0B0F5802F0ED106E0C64909683A
:101B800041F48031C44A116007E0C349096841F457
:101B9000A021C14A116000E000BF00BF704710B52E
:101BA00001460022002300204A11012A02D1BA4C2A
:101BB000236806E0022A02D1B74C236A01E0B64C42
:101BC000636A01F01F02012494401C400CB1012003
:101BD00000E0002010BD38B5002000900024002552
:101BE00000BF3120FFF7DBFF05460098401C009046
:101BF0000098B0F5A06F01D0002DF2D03120FFF792
:101C0000CEFF08B1012400E00024204638BD014683
:101C10000020A14A106820F0F80040EAC1001060DE
:101C20007047A04908607047024600209A4B5868E8
:101C300020F47C1042EA01031843974B5860704728
:101C400098490866704701460020934A506820F082
:101C500003000843506070478F48406800F00C0054
:101C60007047014600208C4A506820F0F00008437D
:101C70005060704701460020874A506820F4E060B9
:101C800008435060704701460020834A506820F4A2
:101C9000605040EAC1005060704729B17E4A527AD4
:101CA00002437D4B5A7204E07B4A527A82437A4B5C
:101CB0005A7270477B49D83108607047014600204E
:101CC000754A506820F44040084350607047002136
:101CD000714A20321170704A82F82010012802D017
:101CE00004280AD104E001216B4A2032117005E07A
:101CF0000521694A2032117000E000BF00BF704723
:101D00006949086070476449096A0143624A11627F
:101D10007047654944390860704730B5002100229A
:101D2000002400235C4D6D6805F00C0121B10429ED
:101D300005D0082923D105E05C4D056022E05B4D0C
:101D400005601FE0544D6D6805F47012524D6D68CA
:101D500005F48034022505EB92421CB9544D5543DD
:101D600005600BE04C4D6D6805F400351DB1504D1C
:101D70005543056002E04D4D5543056002E04B4D73
:101D8000056000BF00BF444D6D6805F0F001090912
:101D9000484D6B5C0568DD4045603F4D6D6805F45E
:101DA000E061090A434D6B5C4568DD4085603A4D52
:101DB0006D6805F46051C90A3E4D6B5C4568DD40B5
:101DC000C560354D6D6805F44041890B3A4D6B5C3B
:101DD000C568B5FBF3F5056130BD29B12E4A5269DE
:101DE00002432D4B5A6104E02B4A526982432A4B2D
:101DF0005A61704729B1284A92690243264B9A6179
:101E000004E0254A92698243234B9A61704729B1C5
:101E1000214AD2690243204BDA6104E01E4AD269AA
:101E200082431D4BDA61704729B11B4AD2680243D5
:101E3000194BDA6004E0184AD2688243164BDA6024
:101E4000704729B1144A12690243134B1A6104E026
:101E5000114A12698243104B1A6170471249403986
:101E6000086070470F49C86470470B49C8717047D4
:101E70000948406A40F0807007494862704701464F
:101E80000020054A92680A400AB1012000E00020C3
:101E90007047014988727047001002400000FFF847
:101EA000FFFFF6FE000042428004424200127A0028
:101EB00000093D00320000204200002010B5044619
:101EC000FB48844209D101218803FFF7ADFF0021BF
:101ED0004FF48040FFF7A8FF32E0F648844209D172
:101EE00001214804FFF7ADFF00214FF40030FFF758
:101EF000A8FF25E0F048844209D101218804FFF7BA
:101F0000A0FF00214FF48020FFF79BFF18E0EB4873
:101F1000844209D10121C804FFF793FF00214FF447
:101F20000020FFF78EFF0BE0E548844208D1012135
:101F30000805FFF786FF00214FF48010FFF781FFAF
:101F400010BD2DE9F04786B005460E460024A24696
:101F500000BFA1460027B08900B100BF2F462C8AE0
:101F60004CF6FF700440F08804432C82AC894EF696
:101F7000F3100440B0883189084371890843044351
:101F8000AC81AC8A4FF6FF400440B0890443AC8278
:101F900001A8FFF7C2FEC648874202D1DDF810A0B3
:101FA00001E0DDF80CA0A88900F4004040B10AEB84
:101FB000CA0000EB0A1031684900B0FBF1F807E0F5
:101FC0000AEBCA0000EB0A1031688900B0FBF1F897
:101FD0006420B8FBF0F004012009642101FB1089A2
:101FE000A88900F4004040B1322000EBC900B0FBEA
:101FF000F1F000F00700044308E0322000EB091084
:102000006421B0FBF1F000F00F0004432C8106B016
:10201000BDE8F0874FF41651016000218180C18036
:1020200001810C21418100218181704710B5024658
:102030000020108A4FF2FF0318400B884C8823437E
:102040008C882343CC8823431843108210BD002181
:10205000018041808180C180704721B1828942F432
:102060000052828104E082894DF6FF731A4082811A
:102070007047F0B50346002400260025002040F6F6
:102080006A17B94200D100BF1846C1F3421401F0EB
:102090001F06012707FA06F5012C01D10C3004E0D8
:1020A000022C01D1103000E014301AB107682F4320
:1020B000076002E00768AF430760F0BD1AB1838A8A
:1020C0000B43838202E0838A8B4383827047028AB8
:1020D0004FF6F0731A400282028A0A430282704766
:1020E00082894FF2FF731A40828182890A4382817A
:1020F000704721B1828942F00202828104E0828924
:102100004FF6FD731A4082817047028A4FF6DF73E3
:102110001A400282028A0A430282704721B1028A6F
:1021200042F48042028204E0028A4BF6FF731A40B6
:1021300002827047C1F30802828070470146888896
:10214000C0F308007047818941F001018181704727
:10215000028BD2B20283028B42EA012202837047D1
:10216000028B02F47F420283028B0A430283704790
:1021700021B1828A42F02002828204E0828A4FF6F4
:10218000DF731A408282704721B1828A42F01002C6
:10219000828204E0828A4FF6EF731A40828270478F
:1021A00021B1828A42F00802828204E0828A4FF6DC
:1021B000F7731A408282704721B1828942F400424B
:1021C000828103E08289C2F30E028281704721B1CD
:1021D000828A42F40062828204E0828A4FF2FF73B4
:1021E0001A4082827047828A4FF6FB731A408282BD
:1021F000828A0A438282704721B1828A42F00202B7
:10220000828204E0828A4FF6FD731A408282704710
:1022100002460020B1F5007F00D100BF13880B40BB
:102220000BB1012000E00020704701F40072B2F50C
:10223000007F00D100BFCA430280704770B50246DC
:10224000002400230025002040F66A16B14200D188
:1022500000BFC1F3421501F01F03012606FA03F384
:10226000012D02D19689334006E0022D02D1168A53
:10227000334001E0968A33400C12012606FA04F43A
:102280001688344013B10CB1012000E0002070BD6D
:1022900010B50022002340F66A14A14200D100BF0D
:1022A0000A1201249440A3B2DC43048010BD000054
:1022B000003801400044004000480040004C00400D
:1022C0000050004070477047704770477047754630
:1022D00000F02CF8AE4605006946534620F0070092
:1022E000854618B020B5FEF7C1FFBDE820404FF08D
:1022F00000064FF000074FF000084FF0000B21F0F0
:102300000701AC46ACE8C009ACE8C009ACE8C009BC
:10231000ACE8C0098D46704710B50446AFF30080A5
:102320002046BDE81040FDF728BF00000048704778
:102330001001002010B591EA030F48BF83F000435D
:1023400000F12E83841A71EB030C05D2121943EBB2
:102350000C03001B61EB0C01DFF824E14FEA115480
:10236000A4EB135C1EEA430F18BF9EEA445F73D0D0
:1023700023EA0E03DCF1200E21EA045143F480131A
:1023800032D322FA0CFE10EB0E0023FA0CFE41EBC6
:102390000E01CCF1200E03FA0EFE10EB0E0051F1EF
:1023A0000001B1F5801FCCF1200E32D201EB0451B7
:1023B00012FA0EF2BDE8104058BF7047401C38BFFB
:1023C0005FEA420218BF7047002814BF20F00100E6
:1023D00041F100014FEA410313F5001F38BF704778
:1023E000A1F1C04100F0CEBA012A43EB0302ACF1E7
:1023F000200CDCF11F0E32BF4FF0000E23FA0CF35D
:1024000010EB030041EB0451B4EB115FD0D0A1EB12
:10241000045101F5801149085FEA300001EB0451D5
:102420000ED350F1000038BF12FA0EFE08D1BDE8FD
:102430001040C9E7401C38BF5FEA4202CAD1C3E777
:10244000BDE810404FEA410313F5001F38BF704745
:10245000A1F1C04100F096BA9EEA445F08D011EAAB
:102460005E0FBDE8104004BF01F00041002070473E
:10247000BDE8104070B500F037FA00BF64FBBE3E07
:102480000000E0FF2DE9C04130B4DFF8A0C23CEA13
:10249000111418BF3CEA131400F0EC8081EA030524
:1024A0001CEA111444EAD57418BF1CEA131500F095
:1024B000C780A4EB05044FF0004545EAC12145EA79
:1024C000C32341EA505143EA525304F17F749942C5
:1024D00004F500344FEAC0204FEAC22208BF904200
:1024E00000F09C804FEA13650FF24016765D4FEACC
:1024F000134506FB05F7C7F1807706FB07F74FEAA0
:10250000D737A7FB03687642C8F58038A7FB06CE0D
:1025100038BFA8F1010807FB08E64FF0000EA6FB44
:10252000028CE6FB03CEDCF1000CCEF1004E38BF8E
:10253000AEF1010EA6FB0C584FF000074FF000055E
:10254000E6FB0E87A1FB08C6A0FB07CE16EB0E0626
:1025500045F10005E1FB076515F1E04E7EBFA4F5EE
:1025600080345FEA46066D4116F1800745F10005AB
:102570004FEA17274FEA066647EA0567A6F1DE46E7
:10258000B6F1805F4FEA15251FD9384624F0010CBB
:1025900005EBC471BCF1FE6F01EB0C1102D8F0BC6D
:1025A000BDE8008124425CBF01F5801E9EEAC47F25
:1025B00002D4F0BCBDE80081244238D4F0BCA1F1C3
:1025C000C041BDE8004100F0DDB94FEAD22242EA45
:1025D00043524FEAD323A7FB02864FEAD02040EABA
:1025E000415007FB03661EEA0E0F4FEAD12105FB9F
:1025F000026658BFA6EB0056B6EB00564FEA520EE5
:102600004EEAC37E18EB0E0E56EB530EBDD518EBFB
:1026100002085E417F1C55F10005B6E74FF48015B6
:102620004FF000074FF000064FF00008ADE7F0BC98
:102630004FF0000001F1C04101F00041BDE8008110
:1026400011EA0C1F0CEA131500D00CE013EA0C1F62
:1026500000F025804FF00000F0BC81EA030101F09A
:102660000041BDE80081F0BCBDE8004181EA030102
:1026700000F088B9F0BCBDE8004170B500F034F955
:10268000097EFC3E00F007B881EA03014FF000002C
:1026900001F00041704781EA030100F073B9F0BC1A
:1026A000BDE800414FF0000021497047FFFDFBF9F4
:1026B000F7F5F4F2F0EEEDEBE9E8E6E4E3E1E0DE75
:1026C000DDDBDAD8D7D5D4D3D1D0CFCDCCCBCAC8E7
:1026D000C7C6C5C4C2C1C0BFBEBDBCBBBAB9B8B70E
:1026E000B6B5B4B3B2B1B0AFAEADACABAAA9A8A801
:1026F000A7A6A5A4A3A3A2A1A09F9F9E9D9C9C9BCF
:102700009A99999897979695959493939291919079
:102710008F8F8E8E8D8C8C8B8B8A8989888887870A
:102720008685858484838382828181800000FF077F
:102730000000F87F4FEA41034FEA5353A3F580634B
:10274000D3F11E03C8BFD3F1210C0CDD4FF00042C2
:1027500042EAC12242EA505232FA03FC8CEAE17C9E
:10276000ACEBE1707047102BC4BF0020704703F53D
:10277000787CBCF1FF3F04D06FF0004282EA210078
:10278000704770B500F0B0F849922480002070477F
:10279000F2E70000DFF848C170B51CEA111E1EBF49
:1027A0001CEA13159EEA0C0F95EA0C0F00F06F80DF
:1027B00081EA030423EA4C134EEAD47E21EA4C1149
:1027C00041F4801143F48013AE44A1FB024CA0FB02
:1027D0000365AEF17F7E361955EB0C05A1FB034C6A
:1027E0004CF10003A0FB021C16EB0C06654153F1F3
:1027F0000003094218BF46F0010613F4007F0BD115
:102800004FEA03314FEA0530340341EA155140EAFB
:1028100016506FF003020AE04FEAC3214FEAC520C9
:10282000F40241EA555140EA56506FF0020202EBC1
:102830002E4201EB025585EACE710AD05FEA440CC4
:1028400018BF24F0004450F1000041F1000120EADB
:10285000D47040F2FE7C624500D270BDA84214BF25
:102860004FF080444FF04044002E08BF0024BEF1DA
:10287000806FA8BFA1F1C041BDE8704080F28280A6
:102880004FF0000001F1C04101F0004170479EEAA5
:102890000C0F0CEA131518BF95EA0C0F06D04FF079
:1028A000000081EA030E0EF0004170BD00F01CF83C
:1028B0008900013E00F007B800F009B84FEA430C68
:1028C0005FEA5C5C08D081EA030100F05BB84FEA84
:1028D000410C5FEA5C5CF6D14FF0000001497047A3
:1028E0000000FF070000F87F0EF1020E2EF0030E2D
:1028F0005EF8046B364205D4012A43EB030515F557
:10290000001F12D8012841EB010C1CF5001F0CD848
:102910000ED14FEAD17C15F5001F0CEB4C0C0CF1DD
:10292000020C08BF4CEBD37C04E04FF0080C01E034
:102930004FEAD37C0CEB4C0526FA05F606F00706A9
:10294000B6F1040C06D20EEB860CBDE870404CF0DC
:10295000010C6047DFE80CF0090B02024FF0004168
:102960004FF00000A1F5002170BD19461046012866
:1029700051EB010418BFD4F5001484BF002001F00E
:10298000004170BD0808A0F500114FEA3101704701
:1029900010B591EA030F48BF83F000433FF5D2AC76
:1029A000841A71EB030C07D212198CF0004C43EB24
:1029B0000C03001B61EB0C01DFF8A4E14FEA11549A
:1029C000A4EB135C1EEA430F18BF9EEA445F00F0BD
:1029D000B08023EA6E03524221EA0451C3EB6E0336
:1029E00038BF5B1EDCF1200E25D322FA0CFE10EB63
:1029F0000E0043FA0CFE41EB0E01CCF1200E03FA5F
:102A00000EFE10EB0E0051F10001CCF1200E29D486
:102A100012FA0EF201EB0451BDE8104058BF7047A6
:102A2000401C1CBFB2F1004F704700280CBF491C6E
:102A300020F00100704712EB020E43EB030218BFB7
:102A40004FF0010E4EEA4202ACF1200CDCF11E0EFA
:102A500054D943FA0CFE10EB0E0051F1FF31CCF1CA
:102A60001E0ED5D50EF1010E12FA0EFE404141EBBD
:102A7000010101EB445C5FEA5C5C10D910EBDE7095
:102A800001EB045138BFBEF1004FBDE8104018BF44
:102A9000704700280CBF491C20F00100704730D25D
:102AA0004FEAD42C11F5001124F400641BD0B1FAC4
:102AB00081F20B3AA41AA41ED2F12003914030FAFD
:102AC00003F31943904001EBCC71002C01EB04514E
:102AD000BDE81040A8BF704701F1C0414FF00000B1
:102AE00001F000417047B0FA80F310FA03F100D111
:102AF00010BDE41A173C4805C90AE4E701EB04518C
:102B000010BD491001EB0451BDE810404FEA300000
:102B100002E04FF0000170474A0008BF0042F8D0C1
:102B2000B2F5001F28BF704701F000414FF00000D0
:102B300070479EEA445F07D011EA5E0FBDE810407F
:102B400004BF002100207047BDE8104070B5FFF7BA
:102B5000CBFE00BF40DFF63E83F0004110467047D9
:102B60000000E0FF43004FEAD30C4FEA3C0C434027
:102B70001FBF40070CF1605113F0FE4F70471CF06F
:102B8000006F03D100200CF0004170470CF00043AF
:102B900043EA507010B540EACC0000F006F900BFDF
:102BA000000000924FEA0001FFF7ECBE4FF0004139
:102BB0004FF00000A1F500217047000090EA010FDE
:102BC00048BF81F0004100F14C81421A3CBF801A9D
:102BD00089184FEAD0524FF07F4C1CEA410FA2EB0C
:102BE000D15318BF9CEA026F00F03B804FF0004CBD
:102BF0004CEA00204CEA012121FA03FC10EB0C0CFA
:102C00001ED202F1FF325FEA1C2040EBC25038BFF7
:102C100070471CF07F0F4FEA400C18BFBCF17F4F8C
:102C200038BF7047C3F12003994008BF20F001006E
:102C3000BCF17F4F38BF7047A0F1C04000F0FBB837
:102C40004FEA3C00000A40EBC25028BF1CF0FF0FC7
:102C50004FEA400CE6D018BFBCF17F4F38BF704739
:102C6000EAE79CEA026F05D010EA5C0F08BF00F0AB
:102C70000040704710B500F098F800BF64FBBE3EFE
:102C8000B0FA80F310FA03F2C3F19D030AD0D9051C
:102C900001EB1220530638BF704700F1010008BF56
:102CA00020F00100704700004FF47F0C1CEAD012A6
:102CB0001EBF1CEAD11392EA0C0F93EA0C0F00F02E
:102CC000478090EA010F48BF42F480724FF0004CF9
:102CD0004CEA00204CEA012102EB0302A0FB0113A5
:102CE000A2F50002002918BF43F001035B0028BFD2
:102CF0004FEA330342EB22425FEA132C4CEBC25003
:102D00002EBFBCEB436FB2F57C0F70474FEA036CEC
:102D1000BCF1004F08BF20F00100B2F57C0F38BFB6
:102D200070470BD582F0FF0212F5803FC8BF704795
:102D300000F1C040D8BF00F00040704700F5000C23
:102D40005FEA4C0C48BF7047B0F1C04000F073B868
:102D500090EA010F0CEAD11348BF42F48072624539
:102D600038BF634504D280EA010000F0004070479C
:102D700010B500F01AF800BF8900013E00F007B856
:102D800000F009B85FEA410C5FEA1C6C08D080EAE9
:102D9000010000F050B85FEA400C5FEA1C6CF6D10D
:102DA0004FF00040A0F5800070470EF1020E2EF0AB
:102DB000030E5EF8044B244204D44FEA4102B2F100
:102DC0007F4F11D84FEA4003B3F17F4F0CD80ED19B
:102DD0004FEAD07CB2F17F4F0CEB4C0C0CF1020CA3
:102DE00008BF4CEBD17C04E04FF0080C01E04FEA47
:102DF000D17C0CEB4C0324FA03F404F00704B4F187
:102E0000040C06D20EEB840CBDE810404CF0010C13
:102E10006047DFE80CF0070802024FF00040A0F521
:102E2000800010BD0846420018BFD2F1807288BFF2
:102E300000F0004010BDFF2141EAD050C0057047AE
:102E400080F0004090EA010F7FF5BFAE81F00041B5
:102E500000F007B890EA010F48BF81F000413FF54C
:102E6000B4AE421A04D882F00042A0EB0200114432
:102E70004FEAD0524FF07F4C1CEA410FA2EBD153E6
:102E800018BF9CEA026F4AD04FF0004C4CEA002079
:102E90004CEA012121FA03FCB0EB0C0C0FD412F028
:102EA000FE0F36D05FEA4C001DD5001240EBC25039
:102EB00038BF70471CF03F0F18BF70470BE0A2F1FE
:102EC00001025FEA1C2040EBC25038BF70471CF083
:102ED0007F0F18BF7047C3F12003994014BF401EF5
:102EE00020F00100704780084FEA122308BF7047A6
:102EF000B0FA80FCA2EB0C02CCF1280C60FA0CF0CA
:102F000093EA122F04BF00EBC25070474FEAC37020
:102F10007047130A5FEADC1008BF7047F6E79CEAC7
:102F2000026F04D010EA5C0F08BF0020704710B594
:102F3000FFF73BFF40DFF63E81F0004070470000A6
:102F40000000000000000000000000000000000081
:102F500000F8000000000000003330000000001006
:102F60000C06100C0600000000000000000040C02D
:102F70007840C0784000043F04043F04040000701F
:102F800088FC08300000001820FF211E0000F00817
:102F9000F000E018000000211C031E211E0000F0BC
:102FA0000888700000001E21232419272110101604
:102FB0000E00000000000000000000000000000003
:102FC00000E0180402000000000718204000000282
:102FD0000418E000000000402018070000004040F6
:102FE00080F0804040000202010F01020200000058
:102FF00000F0000000000101011F010101000000BC
:1030000000000000000080B0700000000000000020
:1030100000000000000000010101010101010000A9
:103020000000000000000030300000000000000040
:10303000000080601804006018060100000000E035
:1030400010080810E000000F102020100F000010E2
:1030500010F8000000000020203F20200000007039
:103060000808088870000030282422213000003031
:103070000888884830000018202020110E00000029
:10308000C02010F8000000070424243F240000F8AA
:103090000888880808000019212020110E0000E08F
:1030A000108888180000000F112020110E00003831
:1030B0000808C83808000000003F00000000007049
:1030C000880808887000001C222121221C0000E0D2
:1030D00010080810E0000000312222110F0000004B
:1030E00000C0C00000000000003030000000000000
:1030F0000080000000000000806000000000000070
:103100008040201008000001020408102000404008
:10311000404040404000040404040404040000084B
:103120001020408000000020100804020100007000
:1031300048080808F0000000003036010000C030E8
:10314000C828E810E0000718272423140B0000000B
:10315000C038E0000000203C23020227382008F895
:10316000888888700000203F202020110E00C03089
:10317000080808083800071820202010080008F860
:1031800008080810E000203F202020100F0008F859
:103190008888E8081000203F20202320180008F825
:1031A0008888E8081000203F200003000000C0309D
:1031B00008080838000007182020221E020008F81E
:1031C00008000008F808203F210101213F200008E5
:1031D00008F8080800000020203F20200000000020
:1031E0000808F8080800C08080807F00000008F808
:1031F00088C028180800203F20012638200008F841
:10320000080000000000203F20202020300008F8A7
:10321000F800F8F80800203F003F003F200008F8C1
:1032200030C00008F808203F200007183F00E010D9
:1032300008080810E0000F10202020100F0008F8E8
:1032400008080808F000203F210101010000E010FB
:1032500008080810E0000F18242438504F0008F820
:10326000888888887000203F2000030C3020007080
:103270008808080838000038202121221C0018087E
:1032800008F8080818000000203F2000000008F897
:1032900008000008F808001F202020201F000878E0
:1032A000880000C83808000007380E010000F80840
:1032B00000F80008F800033C0700073C030008186A
:1032C00068808068180820302C03032C30200838D0
:1032D000C800C83808000000203F20000000100887
:1032E0000808C838080020382621202018000000CF
:1032F00000FE020202000000007F40404000000C7F
:1033000030C000000000000000010638C0000002CC
:103310000202FE000000004040407F00000000006C
:10332000040202020400000000000000000000008F
:10333000000000000000808080808080808000028B
:103340000204000000000000000000000000000077
:103350008080808000000019242222223F2008F86B
:10336000008080000000003F112020110E000000AE
:10337000008080800000000E11202020110000003D
:1033800000808088F800000E112020103F200000EF
:10339000808080800000001F2222222213000080F3
:1033A00080F0888888180020203F2020000000003E
:1033B000808080808000006B94949493600008F873
:1033C000008080800000203F210000203F200080FE
:1033D0009898000000000020203F202000000000FE
:1033E00000809898000000C08080807F000008F86E
:1033F000000080808000203F24022D302000000843
:1034000008F8000000000020203F202000008080FD
:10341000808080808000203F20003F20003F80800F
:10342000008080800000203F210000203F2000001D
:10343000808080800000001F202020201F008080CE
:1034400000808000000080FFA12020110E000000FD
:10345000008080808000000E112020A0FF808080EE
:1034600080008080800020203F212000010000009B
:103470008080808080000033242424241900008070
:1034800080E0808000000000001F2020000080807D
:10349000000000808000001F202020103F2080803E
:1034A00080000080808000010E30080601008080CE
:1034B0000080008080800F300C030C300F000080F3
:1034C0008000808080000020312E0E31200080801E
:1034D00080000080808080818E701806010000804E
:1034E0008080808080000021302C2221300000006C
:1034F0000000807C020200000000003F404000000D
:103500000000FF00000000000000FF0000000002BB
:10351000027C800000000040403F000000000006E8
:10352000010102020404000000000000000000008D
:103530005035000800000020480000002801000865
:1035400098350008480000202807000044010008C2
:10355000000000000000000000000000000000006B
:1035600000A24A0400000000000000000102030461
:10357000060708090000000000000000000000002D
:10358000000000000000010203040102030406071A
:0835900008090204060800000E
:04000005080000ED02
:00000001FF
